:100000000C94BF000C94DC000C94DC000C94DC001D
:100010000C94DC000C94DC000C94DC000C94DC00F0
:100020000C94DC000C94DC000C94DC000C9419069D
:100030000C94DC000C94DC000C94DC000C94DC00D0
:100040000C94DC000C94DC000C94DC000C94DC00C0
:100050000C94DC000C94DC000C94DC000C94DC00B0
:100060000C94DC000C94DC000C94DC000C94DC00A0
:100070000C94DC000C94DC000C94DC006E616E00CF
:10008000696E660000407A10F35A00A0724E18099B
:100090000010A5D4E80000E87648170000E40B54EF
:1000A000020000CA9A3B000000E1F50500008096BE
:1000B0009800000040420F000000A08601000000F0
:1000C000102700000000E8030000000064000000AA
:1000D00000000A00000000000100000000002C7673
:1000E000D888DC674F0823DFC1DFAE59E1B1B7968E
:1000F000E5E3E453C63AE651997696E8E6C28426EB
:10010000EB898C9B62ED407C6FFCEFBC9C9F40F2C6
:10011000BAA56FA5F490055A2AF75C936B6CF96742
:100120006DC11BFCE0E40D47FEF520E6B500D0ED07
:10013000902E0300943577050080841E080000206F
:100140004E0A000000C80C333333330F986E12830D
:100150001141EF8D2114893BE65516CFFEE6DB18E1
:10016000D1844B381BF77C1D901DA4BBE4242032A6
:1001700084725E228100C9F124ECA1E53D2711249F
:100180001FBECFEFD0E1DEBFCDBF12E0A0E0B1E0F7
:10019000EAEFF1E102C005900D92A230B107D9F764
:1001A00012E0A2E0B2E001C01D92AA30B107E1F76F
:1001B0000E942F060C94FB080C940000A1E1B0E013
:1001C000E4EEF0E00C9413073C017F876E876A0130
:1001D000FC0117821682838181FD03C06FEF7FEFE0
:1001E0006FC39E012F5F3F4F398B288BF301238113
:1001F000EE85FF8523FD859123FF8191FF87EE87A3
:10020000882309F45AC3853251F4EE85FF8523FD16
:10021000859123FF8191FF87EE87853229F490E055
:10022000B3010E943808E2CF982F10E08824992467
:100230001032B0F49B3269F09C3228F4903251F0C5
:10024000933271F40BC09D3239F0903349F4116050
:1002500028C01260146025C0186023C0106121C03E
:1002600017FD2AC0892F80538A3078F416FF06C004
:10027000FAE09F9E902C1124980E13C03AE0839EC2
:10028000802C1124880E10620CC09E3221F416FDC1
:1002900014C3106406C09C3611F4106802C098366E
:1002A00059F4EE85FF8523FD959123FF9191FF87FA
:1002B000EE87992309F0BCCF892F8554833020F431
:1002C000812F8061905E07C0892F8556833008F0AA
:1002D0009FC1812F8F7E86FD02C076E0972E6FE34F
:1002E000F62EF822953619F4F0E4FF2A07C0963668
:1002F00019F420E8F22A02C091109A94F7FE0AC07D
:100300003BE3391518F45CE3B52E02C0B92CB39465
:1003100027E009C047E0491520F4BB2447E0942EAC
:10032000F7CF292DBB24C60104969D878C87F60143
:100330006081718182819381AE014F5F5F4F0B2D90
:100340000E944A076C010981202E332400FF04C05B
:1003500003FD02C01DE209C0F1FE02C01BE205C0A0
:10036000F2FC02C010E001C010E2C1018C7090707C
:10037000892BB9F1112311F483E001C084E08815C1
:1003800010F088240AC0881AF3FC07C080E290E0CD
:10039000B3010E9438088A94C9F7112329F0812FEC
:1003A00090E0B3010E94380823FE03C00CE710E080
:1003B0000EC000E810E00BC0E114F10409F0805217
:1003C00090E0B3010E9438080F5F1F4F05C0EF2C6B
:1003D000FF24F0E1EF22FF24F8018491882361F7E4
:1003E00014C1F7FE12C0BC0C24FE04C08A81813304
:1003F00009F4BA941B141CF0BB24B3942DC0F8E08C
:10040000FB1550F538E0B32E27C0F6FC25C0892D2A
:1004100090E08C159D054CF02CEFC2162FEFD20604
:1004200024F030E8F32A01C09A94992049F0E2E0E0
:10043000F0E0EC0FFD1FE90DF11D80818033A1F389
:10044000F7FE0AC0B92CB394892D90E0C816D906DE
:1004500014F0992401C09C18F7FC03C025E030E09B
:1004600009C01C141D041CF021E030E003C09601FB
:100470002F5F3F4F112311F02F5F3F4F992029F03D
:10048000892D90E00196280F391F882D90E02817BC
:10049000390714F0882401C0821A4F2C5524C20158
:1004A00089709070892B39F008C080E290E0B30128
:1004B0000E9438088A948820C1F7112329F0812FDF
:1004C00090E0B3010E94380843FE07C008C080E3F3
:1004D00090E0B3010E9438088A948820C1F7F7FEA3
:1004E00046C08601D7FE02C000E010E07601089405
:1004F000E11CF11CE01AF10A41E050E04C0F5D1FD5
:10050000E40EF51E26014B185108892D90E0AA240F
:10051000BB24A81AB90A5FEF0F3F150729F48EE232
:1005200090E0B3010E943808C016D10634F040169E
:1005300051061CF4F701808101C080E30150104096
:100540000894E11CF11C0A151B052CF090E0B30186
:100550000E943808E0CF0C151D0539F49A819633B6
:1005600018F4953311F424FE81E390E04BC08A81A6
:10057000813309F00F7E90E0B3010E943808992082
:10058000A1F08EE290E0B3010E94380812E0E1E0B1
:10059000F0E0EC0FFD1FE10FF11D1F5F808190E087
:1005A000B3010E9438089A9491F744FC03C085E691
:1005B00090E002C085E490E0B3010E943808D7FCC7
:1005C00005C0C114D10441F404FF06C0D094C19405
:1005D000D108D3948DE201C08BE290E0B3010E9478
:1005E000380880E305C08F5F26EF3FEFC20ED31EB1
:1005F0003AE0C316D104BCF790E0B3010E9438087A
:10060000C601C096B3010E943808CC84DD8452C173
:10061000933631F0933799F0933509F059C023C0E0
:10062000F601808189835E010894A11CB11C22E03F
:1006300030E0C20ED31E21E0E22EF12C12C0F601F2
:10064000A080B18016FD03C06FEF7FEF02C0692D5F
:1006500070E022E030E0C20ED31EC5010E942D08DA
:100660007C011F7713C0F601A080B18016FD03C086
:100670006FEF7FEF02C0692D70E022E030E0C20E24
:10068000D31EC5010E9422087C01106813FF07C019
:100690001BC080E290E0B3010E9438088A94882D44
:1006A00090E0E816F906A8F30FC0F50117FD859153
:1006B00017FF81915F0190E0B3010E94380881101B
:1006C0008A940894E108F108E114F10471F7F2C08A
:1006D000943611F0993689F517FF08C0F60120818C
:1006E00031814281538184E090E00AC0F60180812B
:1006F00091819C01442737FD4095542F82E090E082
:10070000C80ED91E9FE6F92EF12257FF09C0509559
:100710004095309521953F4F4F4F5F4F90E8F92A14
:10072000CA01B901AE014F5F5F4F2AE030E00E947D
:100730009D08E82EE889EE1A41C0953721F41F7E06
:100740002AE030E01CC0197F9F3661F0903720F41A
:10075000983509F0B2C00FC0903739F0983709F0DA
:10076000ACC004C028E030E00AC0106114FD146081
:1007700020E130E004C014FD166020E132E017FFF4
:1007800008C0F601608171818281938144E050E06C
:1007900008C0F60180819181BC0180E090E042E0D8
:1007A00050E0C40ED51EAE014F5F5F4F0E949D0802
:1007B000E82E5889E51A8FE7F82EF122F6FE0BC0D5
:1007C0008EEFF822E91438F4F4FE07C0F2FC05C0FD
:1007D0009FEEF92202C01E2D01C0192DF4FE0DC09E
:1007E000FE01EE0DF11D8081803319F4E9EEFE2249
:1007F00008C01F5FF2FE05C003C08F2D867809F088
:100800001F5F0F2DF3FC14C0F0FE0FC0181510F081
:100810009E2C0BC09E2C980C911A182D06C080E2BD
:1008200090E0B3010E9438081F5F1815C0F304C0A0
:10083000181510F4811A01C0882404FF0FC080E34A
:1008400090E0B3010E94380802FF1DC001FD03C003
:1008500088E790E00EC088E590E00BC0802F867896
:1008600091F001FF02C08BE201C080E2F7FC8DE253
:1008700090E0B3010E94380806C080E390E0B30125
:100880000E9438089A94E914C0F3EA94E1E0F0E099
:10089000EC0FFD1FEE0DF11D808190E0B3010E9471
:1008A0003808EE2091F706C080E290E0B3010E9484
:1008B00038088A948820C1F799CCF3016681778142
:1008C000CB016196E2E10C942F07806480937C0059
:1008D0008FEF80937A0080E480937B0011B80895B5
:1008E000806480937C000895EF92FF920F931F9392
:1008F000482FCB0120E16030720714F08FEF9FE0AA
:100900007C010027F7FC0095102F80912B008F7E33
:1009100080932B00842F80630E94D805D801C701E3
:1009200024E0B695A795979587952A95D1F70E94CB
:10093000D8058FE090E0A0E0B0E0E822F9220A2399
:100940001B238E2D8295807F0E94D80580912B00DD
:10095000806180932B0080912B008F7E80932B00F1
:1009600080912B00806180932B001F910F91FF904D
:10097000EF9008956F927F928F929F92AF92BF9265
:10098000CF92DF92EF92FF920F931F939C010097FB
:1009900021F081309105A9F409C08091280080627E
:1009A00080932800809128008F7D08C080912800C6
:1009B000806180932800809128008F7E809328009A
:1009C00010C000D000D080E091E0EDB7FEB7928378
:1009D0008183348323830E9464080F900F900F90CB
:1009E0000F9080E60E94D80580E00E94D805E82E8E
:1009F00080E00E94D805A82E80E00E94D805682ECD
:100A000080E00E94D8059091280090629093280081
:100A100090912800906190932800FF2400E010E05E
:100A20001E2D0027FF24EE24BB24CC24DD246501E9
:100A3000BB24AA24EA28FB280C291D2990E0A0E069
:100A4000B0E0E82AF92A0A2B1B2B77248824992462
:100A5000982C872C762C6624E628F7280829192953
:100A6000B701C8011F910F91FF90EF90DF90CF90D9
:100A7000BF90AF909F908F907F906F9008959C0152
:100A8000009721F081309105A9F409C080912800D8
:100A9000806280932800809128008F7D08C080911B
:100AA0002800806180932800809128008F7E8093A9
:100AB000280010C000D000D086E291E0EDB7FEB76C
:100AC00092838183348323830E9464080F900F9064
:100AD0000F900F9080E20E94D80508950F931F9306
:100AE000182F80912B008F7780932B0086E00E9437
:100AF000D805812F8295880F880F807C0E94D805A9
:100B0000082F10E00F701070102F002780E00E9457
:100B1000D80590912B00906890932B00080F111D21
:100B2000C8011F910F9108958091240080618093E6
:100B3000240080912400806280932400809124000E
:100B4000806880932400809124008F7B8093240010
:100B500083E58CBD80912A00806180932A0080917A
:100B60002B008F7E80932B0080912B0080618093DF
:100B70002B0080912A00806880932A0080912B00AE
:100B8000806880932B0080912700806280932700EB
:100B900080912700806180932700809128008062E7
:100BA0008093280080912800806180932800089518
:100BB0008EBD0DB407FEFDCF8EB508959B01AC012F
:100BC00084E0220F331F441F551F8A95D1F760E040
:100BD00070E489E191E00E94F106215030403093A9
:100BE000CD002093CC0088E18093C90086E08093FB
:100BF000CA000895982F8091C80085FFFCCF90937C
:100C0000CE0008958091C80087FFFCCF8091CE0070
:100C10000895E1EBF0E08081816080831092B20062
:100C2000E0E7F0E080818160808378941092020296
:100C300008951F920F920FB60F9211248F938091F7
:100C400028008E7F80932800809128008160809307
:100C500028008F910F900FBE0F901F9018950F9343
:100C60001F93CF93DF930E946C0660E072EC81E0EB
:100C700090E00E94DE0500D08BE491E0EDB7FEB776
:100C8000928381830E9464080F900F900EE511E01B
:100C9000CEEAD1E00E9402068093030200D0EDB7B5
:100CA000FEB7128301830E9464080F900F90809119
:100CB0000302813479F700D0EDB7FEB7D283C18348
:100CC0000E9464080F900F90E5CF14BC82E085BDB0
:100CD00081E080936E00089583EF91E09093070286
:100CE0008093060260E072EC81E090E00E947E0654
:100CF00008950E94FA0580E090E008959B01AC0100
:100D000084E0220F331F441F551F8A95D1F760E0FE
:100D100070E489E191E00E94F10621503040309367
:100D2000C5002093C40088E18093C10086E08093D1
:100D3000C2000895982F8091C00085FFFCCF90934A
:100D4000C6000895FC0107C08091C00085FFFCCF5C
:100D50009093C600319690819923B1F708950F932F
:100D60001F93DF93CF93CDB7DEB764970FB6F89498
:100D7000DEBF0FBECDBF2DB73EB7285030400FB6F7
:100D8000F8943EBF0FBE2DBFEDB7FEB731968E0172
:100D90000F5F1F4FADB7BEB712961C930E931197FE
:100DA0002FED31E0338322839583848377836683B9
:100DB0000E9479082DB73EB7285F3F4F0FB6F894D1
:100DC0003EBF0FBE2DBFC8010E94A20664960FB69B
:100DD000F894DEBF0FBECDBFCF91DF911F910F9171
:100DE0000895A1E21A2EAA1BBB1BFD010DC0AA1F6C
:100DF000BB1FEE1FFF1FA217B307E407F50720F084
:100E0000A21BB30BE40BF50B661F771F881F991FFE
:100E10001A9469F760957095809590959B01AC0147
:100E2000BD01CF0108952F923F924F925F926F9232
:100E30007F928F929F92AF92BF92CF92DF92EF926A
:100E4000FF920F931F93CF93DF93CDB7DEB7CA1BEB
:100E5000DB0B0FB6F894DEBF0FBECDBF09942A8816
:100E6000398848885F846E847D848C849B84AA84BE
:100E7000B984C884DF80EE80FD800C811B81AA814B
:100E8000B981CE0FD11D0FB6F894DEBF0FBECDBF16
:100E9000ED010895283008F027E03327DA01990F93
:100EA000311D87FD916000966105710539F432604E
:100EB0002E5F3D9330E32A95E1F708959F3F30F090
:100EC00080387105610509F03C5F3C5F3D939130CE
:100ED00008F08068911DDF93CF931F930F93FF92CB
:100EE000EF92192F987F9695E92F96959695E90F91
:100EF000FF27E252FF4F99273327EE24FF24A70153
:100F0000E70105900894079428F4360FE71EF81EB1
:100F1000491F511D660F771F881F991F0694A1F75F
:100F20000590079428F4E70EF81E491F561FC11DAF
:100F3000770F881F991F661F0694A1F705900794E5
:100F400028F4F80E491F561FC71FD11D880F991F7F
:100F5000661F771F0694A1F70590079420F4490FA8
:100F6000561FC71FD81F990F661F771F881F06942B
:100F7000A9F784911095177041F0D695C7955795AC
:100F80004795F794E7941A95C1F7E4E8F0E0689480
:100F90001590159135916591959105907FE2739526
:100FA000E118F10A430B560BC90BD009C0F7E10C4D
:100FB000F11E431F561FC91FD01D7EF4703311F45C
:100FC0008A95E6CFE894015030F0080F0AF4002724
:100FD000021708F4202F2395022F7A3328F079E3A3
:100FE0007D932A95E9F710C07D932A9589F606949A
:100FF00097956795379517951794E118F10A430B64
:10100000560BC90BD00998F023957E9173957A33CE
:1010100008F070E37C932013B8F77E9170617D93A4
:1010200030F0839571E37D9370E32A95E1F7112405
:10103000EF90FF900F911F91CF91DF91992787FD3E
:1010400090950895FC010590615070400110D8F70B
:10105000809590958E0F9F1F0895FC016150704000
:1010600001900110D8F7809590958E0F9F1F0895DD
:101070000F931F93CF93DF938C01EB018B8181FF43
:101080001BC082FF0DC02E813F818C819D8128175E
:10109000390764F4E881F9810193F983E88306C094
:1010A000E885F985802F0995892B31F48E819F8100
:1010B00001969F838E8302C00FEF1FEFC801DF915F
:1010C000CF911F910F910895A0E0B0E0EAE6F8E01B
:1010D0000C942307FE01359661917191809106026F
:1010E00090910702AF010E94DE002096E2E00C948E
:1010F0003F07AEE0B0E0EFE7F8E00C9421070D8980
:101100001E8986E08C831A8309838FEF9FE79E8375
:101110008D839E01275E3F4FCE0101966F89788DAA
:10112000A9010E94DE002F813885020F131FF801EC
:1011300010822E96E4E00C943D07FA01AA2728308D
:1011400051F1203181F1E8946F936E7F6E5F7F4F94
:101150008F4F9F4FAF4FB1E03ED0B4E03CD0670F10
:10116000781F891F9A1FA11D680F791F8A1F911D63
:10117000A11D6A0F711D811D911DA11D20D009F4B3
:1011800068943F912AE0269F11243019305D3193F5
:10119000DEF6CF010895462F4770405D4193B3E0DE
:1011A0000FD0C9F7F6CF462F4F70405D4A3318F085
:1011B000495D31FD4052419302D0A9F7EACFB4E036
:1011C000A6959795879577956795BA95C9F70097EE
:1011D0006105710508959B01AC010A2E069457958F
:1011E000479537952795BA95C9F7620F731F841FE6
:0A11F000951FA01D0895F894FFCF8D
:1011FA00656E63436F756E742829202D2043616ED6
:10120A00277420617373657420656E636F646572F9
:10121A002025640A0D00656E63496E6974282920C9
:10122A002D2043616E277420617373657420656E87
:10123A00636F6465722025640A0D0053746570201B
:10124A003120636F6D706C657465200A0D005468F7
:10125A006973206C696E652077696C6C207072699D
:10126A006E74207768656E206120636861726163BD
:10127A007465722069732072656365697665642096
:10128A0066726F6D207468652073657269616C207F
:10129A00636F6E6E656374696F6E200A0D00546821
:1012AA0069732077696C6C207072696E7420696644
:1012BA002074686520636861726163746572207363
:1012CA00656E7420697320616E2041200A0D0053F7
:1012DA006574736572766F2825642C25303364290A
:1012EA000A0D00000000020000000079060000005C
:0212FA000000F2
:00000001FF
