:100000000C943E000C945B000C945B000C945B0021
:100010000C945B000C945B000C945B000C945B00F4
:100020000C945B000C945B000C945B000C945B00E4
:100030000C945B000C945B000C945B000C94820DA0
:100040000C945B000C945B000C945B000C945B00C4
:100050000C94200E0C945B000C945B000C945B00E1
:100060000C945B000C945B000C945B000C945B00A4
:100070000C945B000C945B000C945B0011241FBE7D
:10008000CFEFD0E1DEBFCDBF17E0A0E0B1E0E8E008
:10009000F0E502C005900D92AC31B107D9F71FE031
:1000A000ACE1B7E001C01D92AD38B107E1F70E94A5
:1000B00043070C9402280C940000DF93CF9300D0E8
:1000C0000F92CDB7DEB78091240080628093240028
:1000D00080912400806880932400809124008F7B8D
:1000E00080932400809164008B7F809364008091D2
:1000F0004C008F7780934C0080914C0080648093FB
:100100004C0080914C008F7D80934C0080914C007E
:10011000806180934C0080914C00877F80934C00DD
:1001200080914C008B7F80934C0080914C008C7FA1
:1001300080934C0080914D00816080934D008091B0
:100140002A0084FD0AC080912A00806180932A00E1
:1001500080912B00806180932B0080E68B839981B6
:100160009F7099831A8290912B009F7E90932B0011
:100170000E94E31C8A810E94E31C89810E94E31C87
:1001800080912B00806180932B000F900F900F9037
:10019000CF91DF910895DF93CF9300D00F92CDB729
:1001A000DEB7982F80912400806280932400809194
:1001B0002400806880932400809124008F7B8093AA
:1001C0002400809164008B7F8093640080914C00B8
:1001D0008F7780934C0080914C00806480934C001A
:1001E00080914C008F7D80934C0080914C00806109
:1001F00080934C0080914C00877F80934C008091CD
:100200004C008B7F80934C0080914C008C7F8093BE
:100210004C0080914D00816080934D0080912A00B8
:1002200084FD0AC080912A00806180932A00809119
:100230002B00806180932B009F7090639B839B01B8
:100240008FE06F3F780710F02EEF3FE0922F9295EE
:10025000907F89818F70892B8983932F9295907FCE
:10026000822F82958F70892B8A8380912B008F7EBD
:1002700080932B008B810E94E31C8A810E94E31CE7
:1002800089810E94E31C80912B00806180932B0068
:100290000F900F900F90CF91DF9108951F93CF9300
:1002A000DF93EB01813011F410E002C082E013E033
:1002B000D7FD07C060E070E00E94CB00812FBE0137
:1002C00009C0662777276C1B7D0B0E94CB00812F0E
:1002D00060E070E00E94CB00DF91CF911F91089504
:1002E000DF93CF9300D00F92CDB7DEB79C01809102
:1002F0002400806280932400809124008068809391
:100300002400809124008F7B8093240080916400DE
:100310008B7F8093640080914C008F7780934C009A
:1003200080914C00806480934C0080914C008F7DC4
:1003300080934C0080914C00806180934C008091B0
:100340004C00877F80934C0080914C008B7F809382
:100350004C0080914C008C7F80934C0080914D002C
:10036000816080934D0080912A0084FD0AC08091B5
:100370002A00806180932A0080912B008061809305
:100380002B008FE28B83922F9295907F89818F70C3
:10039000892B89833295307F22952F70232B2A83D6
:1003A00080912B008F7E80932B008FE20E94E31CB4
:1003B0008A810E94E31C89810E94E31C80912B00AA
:1003C000806180932B000F900F900F90CF91DF9161
:1003D00008950E945D0080E090E00E947001089501
:1003E000ECE1F7E0E80FF11D808108950F931F9372
:1003F000042F8770880F880F880F6295660F660F2D
:10040000607C862B0E94E31C182F802F0E94E31C27
:10041000912F1F910F910895282F90E0913059F05E
:10042000913028F0923059F0933091F40CC08091C3
:1004300028008F7D0BC0809128008F7E07C080919F
:100440002800877F03C0809128008B7F809328003D
:100450009F5F943019F7822F0E94F60190E091304F
:1004600059F0913028F0923059F0933091F40CC04B
:100470008091280080620BC080912800806107C0B5
:1004800080912800886003C0809128008460809358
:1004900028009F5F943019F70895809124008062AE
:1004A00080932400809124008068809324008091B0
:1004B00024008F7B80932400809164008B7F809345
:1004C000640080914C008F7780934C0080914C00A9
:1004D000806480934C0080914C008F7D80934C0011
:1004E00080914C00806180934C0080914C00877F0C
:1004F00080934C0080914C008B7F80934C008091C6
:100500004C00836080934C0080914D008E7F8093DF
:100510004D00809127008062809327008091270002
:100520008061809327008091270088608093270056
:100530008091270084608093270090E0913059F0EB
:10054000913028F0923059F0933091F40CC08091A2
:10055000280080620BC080912800806107C08091D4
:100560002800886003C08091280084608093280060
:100570009F5F943019F786E060E040E00E940C0233
:1005800083E060E040E00E940C0285E060E040E033
:100590000E940C0284E060E040E00E940C0281E0D6
:1005A00062E043E00E940C0282E062E040E00E94D0
:1005B0000C020895DF92EF92FF920F931F93D82EB3
:1005C00080912400806280932400809124008068C0
:1005D00080932400809124008F7B8093240080915D
:1005E00064008B7F8093640080914C008F778093B0
:1005F0004C0080914C00806480934C0080914C00B2
:100600008F7D80934C0080914C00806180934C00E2
:1006100080914C00877F80934C0080914C008B7FB1
:1006200080934C0080914C00836080934C008091BB
:100630004D008E7F80934D0081E0D81669F0D8166A
:1006400038F082E0D81661F083E0D81691F40CC03F
:10065000809128008F7D0BC0809128008F7E07C07D
:1006600080912800877F03C0809128008B7F809332
:10067000280080E60E94E31C8FEF0E94E31C182FE5
:100680008FEF0E94E31C082F8FEF0E94E31CF82ECF
:100690008FEF0E94E31CE82E81E0D81679F0D8167F
:1006A00038F082E0D81681F083E0D816C9F412C081
:1006B000809128008062809328001EC080912800CD
:1006C0008061809328001CC08091280088608093FE
:1006D00028001AC08091280084608093280018C0E8
:1006E00081E0D81669F0D81638F082E0D81661F0AB
:1006F00083E0D81691F40CC0809128008F7D0BC048
:10070000809128008F7E07C080912800877F03C0DA
:10071000809128008B7F8093280086E061E040E094
:100720000E94F601982F81E0D81669F0D81638F0AB
:1007300082E0D81661F083E0D81691F40CC0809165
:10074000280080620BC080912800806107C08091E2
:100750002800886003C0809128008460809328006E
:10076000ED2DF0E0E45EF84F92959F7091709083CC
:10077000DD2041F410950095F094E094E11CF11C0B
:10078000011D111DB701C8011F910F91FF90EF903E
:10079000DF9008951F93182F813059F0813028F091
:1007A000823059F0833091F40CC0809128008F7D05
:1007B0000BC0809128008F7E07C080912800877F22
:1007C00003C0809128008B7F8093280084E060E044
:1007D00040E00E94F60183E060E040E00E94F60104
:1007E00085E060E040E00E94F601113059F01130E0
:1007F00028F0123059F0133091F40CC08091280089
:1008000080620BC080912800806107C08091280021
:10081000886003C080912800846080932800812F25
:100820000E94180A812F0E9422071F910895EF92BB
:10083000FF920F931F938C01DC011F968C911F97E1
:1008400090E021ED31E0F9018E9F90018F9F300DF6
:100850009E9F300D112481E2E82E87E0F82EF901E9
:10086000EE0DFF1D8081817050968C935097808192
:100870008695817051968C93519780818695869547
:10088000817052968C930894E108F108E20EF31EF1
:10089000D70117966D917D918D919C911A9720E0CB
:1008A00030E048EC52E40E9485210E944924F8017E
:1008B000938B848B758B668BD7011B966D917D9185
:1008C0008D919C911E9720E030E048EC52E40E940C
:1008D00085210E944924F801978B808F718F628F48
:1008E000D7011F966D917D918D919C91529720E03B
:1008F00030E048EC52E40E9485210E944924F8012E
:10090000938F848F758F668F84E1818780E28783E0
:100910001F910F91FF90EF900895823028F020E012
:1009200030E040E050E015C0282F30E081ED91E04C
:10093000289FF001299FF00D389FF00D1124E05EF3
:10094000F84F6789708D818D928D0E9449249B019B
:10095000AC01B901CA010895EF92FF920F931F9362
:10096000CF93DF93EC01CB54DE4FE880F9800A810E
:100970001B81C55BD140C801B70120E030EE4FE7D5
:1009800055E40E945B2318165CF40F2EF0E0EF2E66
:10099000F0EEFF2EFFE70F2FF5E41F2FF02D14C010
:1009A000C801B70120E030EE4FE755EC0E94BB23B1
:1009B000882354F40F2EF0E0EF2EF0EEFF2EFFE729
:1009C0000F2FF5EC1F2FF02DC801B7010E9449240D
:1009D0009B01AC018881B9010E944E01DF91CF914A
:1009E0001F910F91FF90EF9008950F931F938C012B
:1009F000FC0180810E94DA020E94EB23F801678BE0
:100A0000708F818F928F1F910F9108950E94EE0E2B
:100A10008091210780FF20C00E94300CAB01BC01F7
:100A20008DED98E00E94B212609333077093340703
:100A3000809335079093360780E297E00E94F50493
:100A40000E94300CAB01BC0187E297E00E94C71AFC
:100A500080E297E00E94AC048091F20880FF20C001
:100A60000E94300CAB01BC018EEA9AE00E94B212E7
:100A70006093040970930509809306099093070910
:100A800081EF98E00E94F5040E94300CAB01BC019C
:100A900088EF98E00E94C71A81EF98E00E94AC04AA
:100AA0000E94EA0E08957F928F929F92AF92BF921A
:100AB000CF92DF92EF92FF920F931F93CF93DF932A
:100AC000782E4A015B016801790180E091E00E9483
:100AD0003110672D70E080E090E00E94A80F85E162
:100AE00091E00E943110C501B4010E946A0F81E2B9
:100AF00091E00E943110C701B6010E94D50F8EE22D
:100B000091E00E94311081E0871510F480E049C027
:100B1000272D30E081ED91E0289F8001299F100D65
:100B2000389F100D1124F801EF5DF84F808181602E
:100B30008083C501B4010E94EB234B015C01E801F5
:100B4000C05ED84FC354DE4F688379838A839B830A
:100B50002896C882D982EA82FB82C55CD1408B8903
:100B60009C89AD89BE89CF53DE4F88839983AA8340
:100B7000BB830E94300C2896688379838A839B8389
:100B8000C95CD140C701B60120E030E040E050E050
:100B90000E942B23882321F48B8A9C8AAD8ABE8AEB
:100BA00081E0DF91CF911F910F91FF90EF90DF9047
:100BB000CF90BF90AF909F908F907F9008950F93AC
:100BC0001F9300E010E020E030E00E94530581E038
:100BD0001F910F9108952F923F924F925F926F92C3
:100BE0007F928F929F92AF92BF92CF92DF92EF92BD
:100BF000FF920F931F93DF93CF9300D00F92CDB747
:100C0000DEB76C01DC011F96BC91B983EB2FF0E0DD
:100C1000FB83EA8381ED91E09F01289FF001299FEA
:100C2000F00D389FF00D1124EF5DF84F90E0D601E4
:100C300050968C91811191E080818E7F892B8083E9
:100C400081ED91E02A813B81289FF001299FF00DE1
:100C5000389FF00D1124EF5DF84F90E0D6015196CA
:100C60008C91811191E0990F80818D7F892B8083F8
:100C700081ED91E02A813B81289FF001299FF00DB1
:100C8000389FF00D1124EF5DF84F90E0D601529699
:100C90008C91811191E0990F990F80818B7F892B25
:100CA0008083F60113890489F588E688C801B701B5
:100CB0000E94EB231B012C01D60157961C915797DC
:100CC00058960C9158975996FC9059975A96EC90D3
:100CD000C801B7010E94EB233B014C01F601138DC3
:100CE000048DF58CE68CC801B7010E94EB235B01F3
:100CF0006C0181ED91E02A813B81289F8001299F31
:100D0000100D389F100D112490E2E92E97E0F92E76
:100D1000E00EF11EC201B10120E030E048EC52E4E7
:100D20000E947F22D70117966D937D938D939C939C
:100D30001A97C401B30120E030E048EC52E40E946D
:100D40007F22F7016387748785879687C601B5017F
:100D500020E030E048EC52E40E947F22D7011F9649
:100D60006D937D938D939C9352970F5D184FF8016F
:100D70008081F981EF2EFF2400E010E080FD0EC09D
:100D800083E391E00E948910C801B7010E94A80F77
:100D9000898160E070E00E944E0108C08BE491E020
:100DA0000E948910C801B7010E94A80F81E00F902E
:100DB0000F900F90CF91DF911F910F91FF90EF90C7
:100DC000DF90CF90BF90AF909F908F907F906F906B
:100DD0005F904F903F902F9008958F929F92AF9287
:100DE000BF92CF92DF92EF92FF920F931F938C01ED
:100DF000F62E862F40E050E060E070E00E94DF05B4
:100E0000F801F0828181816081830E94300C4B0166
:100E10005C01C801079640E050E060E87FE300E035
:100E200010E020EC3FE3680179010E94681A1F91ED
:100E30000F91FF90EF90DF90CF90BF90AF909F9079
:100E40008F900895682F823010F080E0089590E030
:100E500021ED31E0AC01429FC001439F900D529FB4
:100E6000900D1124805E984F0E94ED0681E0089558
:100E700080E297E060E00E94ED0681EF98E061E09B
:100E80000E94ED0608950E944E150E948D0A0E9450
:100E9000250A82EC9AE00E940115F9CF0895089581
:100EA00008950895089508958091CC0B8823B9F58D
:100EB00081E08093CC0B83E08093CD0B8091720412
:100EC0008093CE0B809173048093CF0B8091740438
:100ED0008093D00B809175048093D10B8091760420
:100EE0008093D20B809177048093D30B80E2809320
:100EF000D40B81E88093D50B85E08093D60B8DECE5
:100F00009BE00E94D41183E691E00E9482126093DC
:100F1000D80B7093D90B8093DA0B9093DB0B089569
:100F20004F925F926F927F928F929F92AF92BF92F9
:100F3000CF92DF92EF92FF920F931F93CF93DF93A5
:100F4000482E5A016B010E9454078091D50B80787E
:100F500083608093D50B88E691E00E9482126093B3
:100F6000D80B7093D90B8093DA0B9093DB0B81E154
:100F70008093D60B4092DC0BD092DD0BC092DE0B3F
:100F8000B092DF0BA092E00B0E94300C0E9449242B
:100F90009093E10B8093E20B7093E30B6093E40B6F
:100FA0000E94300C3B014C01C42DD0E0CC0FDD1F62
:100FB000CC0FDD1F85E8482E8FE0582E4C0E5D1EAD
:100FC000F20180819181A281B381A6019501281B44
:100FD000390B4A0B5B0BCA01B9010E94EB237B0161
:100FE0008C01C358D04FC401B301288139814A8193
:100FF0005B810E9427219B01AC01C801B7010E94BF
:101000007F220E9449249093E50B8093E60B709316
:10101000E70B6093E80BF201A082B182C282D38217
:101020000E94300C688379838A839B830DEC1BE0DC
:10103000C8010E94D411C8010E94BB13DF91CF9157
:101040001F910F91FF90EF90DF90CF90BF90AF90E6
:101050009F908F907F906F905F904F9008950F9327
:101060001F930E94540706ED1BE08CE18093D60B82
:10107000F801829180788260808309501040C80115
:101080000E94D411C8010E94BB131F910F910895B3
:10109000EF92FF920F931F937B018C010E945407E4
:1010A0008091D50B807883608093D50B8DE691E09D
:1010B0000E9482126093D80B7093D90B8093DA0B45
:1010C0009093DB0B8EE08093D60B84E00E94841C0F
:1010D0009093DC0B8093DD0B85E00E94841C909341
:1010E000DE0B8093DF0BC801B70120E030E040E267
:1010F00051E40E9485210E9449247093E00B609383
:10110000E10B0E94300C0E94D31E9093E20B80935F
:10111000E30B7093E40B6093E50B0DEC1BE0C8014F
:101120000E94D411C8010E94BB131F910F91FF9020
:10113000EF900895FF920F931F93F82E0E9454078B
:1011400080E28093D40B8091D50B8078816080936E
:10115000D50B85E08093D60B0DEC1BE0C8010E94F7
:10116000D411F092DC0B82E791E00E948910C80153
:101170000E94B110C8010E94BB131F910F91FF90F4
:101180000895CF92DF92EF92FF920F936B017C0153
:1011900081E08093D70CC092D80CD092D90CE09209
:1011A000DA0CF092DB0C2093DC0C3093DD0C4093D6
:1011B000DE0C5093DF0C0093E40CC092E00CD09254
:1011C000E10CE092E20CF092E30CCA01B901A70134
:1011D00096010E94BB23882314F41092D70C60E080
:1011E00070E084EB92E4A70196010E9427212AE98E
:1011F00039E949E95FE30E9485210E94D31E70E02E
:10120000882777FD8095982F0E94EB2320E030E01F
:1012100040E851E40E9458210E94D31E9B01AC017A
:1012200080E0622F40E050E00E94A51D0E94300C3B
:10123000609378017093790180937A0190937B0198
:101240000F91FF90EF90DF90CF9008958F929F9233
:10125000AF92BF92CF92DF92EF92FF920F931F93C4
:101260004C01FC01F784E088B701882777FD809561
:10127000982F0E94EB2320E030E040E251E40E94EE
:101280007F225B016C01F401F188E2880027F7FC02
:101290000095102FC801B7010E94EB2320E030E039
:1012A00040E251E40E947F229B01AC01B501C601DE
:1012B000F40103890E94C108C40166E940E00E946C
:1012C000E7111F910F91FF90EF90DF90CF90BF90AB
:1012D000AF909F908F900895EF92FF920F931F937E
:1012E0008091D70C882309F49EC088E791E00E9482
:1012F0006F0E20E030E040E050E00E945B231816C3
:101300000CF091C06091E00C7091E10C8091E20CC6
:101310009091E30C0E9448086091E00C7091E10C00
:101320008091E20C9091E30C0E9448086091E00CDF
:101330007091E10C8091E20C9091E30C0E944808BE
:101340006091E00C7091E10C8091E20C9091E30CC3
:101350000E9448086091E00C7091E10C8091E20CD1
:101360009091E30C0E9448086091E40C70E088279B
:1013700077FD8095982F0E94EB232091E00C30910F
:10138000E10C4091E20C5091E30C0E9458217B014A
:101390008C016093E00C7093E10C8093E20C9093CD
:1013A000E30C2091DC0C3091DD0C4091DE0C50916F
:1013B000DF0C0E945B2318167CF41092D70C60E0BF
:1013C00070E084EB92E42091D80C3091D90C4091DC
:1013D000DA0C5091DB0C06C060E070E084EB92E424
:1013E000A80197010E9427212AE939E949E95FE329
:1013F0000E9485210E94D31E70E0882777FD80958A
:10140000982F0E94EB2320E030E040E851E40E9456
:1014100058210E94D31E9B01AC0180E0622F40E066
:1014200050E00E94A51D1F910F91FF90EF9008952D
:10143000E82FF0E0EE0FFF1FEE0FFF1FEB51F34F11
:1014400010821182128213820895EF92FF920F93FD
:101450001F930E94EA0E0E946C0980E891E00E94AE
:101460006F0E20E030E040E050E00E945B23181651
:1014700014F40E94060588E891E00E946F0E20E0B7
:1014800030E040E050E00E945B2318160CF040C0B2
:101490001092ED0C39C0E82FF0E0EE0FFF1FEE0FB9
:1014A000FF1FEB51F34FE080F180028113810E9416
:1014B000DA02E616F7060807190709F1E090ED0CC5
:1014C0008E2D0E94DA02EE2DF0E0EE0FFF1FEE0FE0
:1014D000FF1FEB51F34F608371838283938380916D
:1014E000ED0CE82FF0E0EE0FFF1FEE0FFF1FEB51AA
:1014F000F34F40815181628173810E9490078091F6
:10150000ED0C8F5F8093ED0C8091ED0C823018F222
:101510001F910F91FF90EF90089560E072EC81E0D1
:1015200090E00E940A1D80E991E00E9489100E94CB
:10153000E9010E944D020E94380780E060E070E0FF
:101540000E944E0181E060E070E00E944E0184E064
:101550000E94D41B85E00E94D41B80E06CE740E031
:1015600050E00E94A51D8FE066ED71E00E947E189C
:1015700087E165EE71E00E947E1880E16CEF71E01A
:101580000E947E1880E16CE072E00E947E1880E18B
:1015900067EB7BE00E94501880E26CEE7AE00E94DC
:1015A000501880E36BED7AE00E94501887EA91E0D2
:1015B0000E9489100895FC0183859485A585B685D0
:1015C00083569047A946B44611F080E00895CF01B4
:1015D0000E94EB0581E008956F927F928F929F9217
:1015E000BF92CF92DF92EF92FF920F931F93CF9310
:1015F000DF93EC018B859C85AD85BE85833721E625
:10160000920723E6A2072DE6B20709F43CC084370F
:1016100021E6920723E6A2072DE6B207C0F4813641
:1016200020E7920729E6A20724E6B20709F43EC0A4
:10163000823720E7920729E6A20724E6B20709F4D9
:101640007FC08F559047A946B446B9F457C08F352F
:1016500023E7920727E7A20720E7B20709F46CC047
:10166000833723E6920728E6A20726E7B20779F038
:1016700083579346A846BD4611F080E06AC0CE016C
:101680000E944F0765C0CE010E94500761C0CE0185
:101690000E945307882321F0CE0162E042E056C049
:1016A000CE0162E042E00E940B1252C09F84888803
:1016B00079886A88C401B3010E94EB236B017C0125
:1016C0009B888C887D886E8880E0B401A3010C2DF6
:1016D0001D2D2E2D3F2D0E9453059F88888C798CBF
:1016E0006A8C81E0B401A3010C2D1D2D2E2D3F2D00
:1016F0000E945305CE0162E043E028C0BF84988871
:1017000089887A886B88F62CE72CD82CC92C9C8881
:101710008D887E886F88C401B3010E94EB238B0102
:101720009C018B2D4F2D5E2D6D2D7C2D0E94530520
:10173000CE0162E044E00AC0CE010E94260908C042
:101740008F850E94CA03CE0162E045E00E94E71146
:1017500081E0DF91CF911F910F91FF90EF90DF908B
:10176000CF90BF909F908F907F906F900895CF9370
:10177000DF93EC018B859C85AD85BE85833620E7A4
:10178000920729E6A20724E6B20709F44DC0843681
:1017900020E7920729E6A20724E6B20770F48F3506
:1017A00020E7920729E6A20724E6B20789F18156CD
:1017B0009047A946B446B1F41BC0873623E692078A
:1017C00028E6A2072DE6B20791F1873623E69207B5
:1017D00028E6A20726E7B20739F087569146A346C6
:1017E000BD4629F180E024C0CE010E9451071FC0F0
:1017F00080E00E948D049F87888B798B6A8B81E0C3
:101800000E948D049B8B8C8B7D8B6E8B8CE008C033
:101810008F850E948D04988B898B7A8B6B8B89E0E6
:10182000898780E28F8303C0CE010E94170481E084
:10183000DF91CF910895AC0120E030E00CC0FA01B7
:10184000E20FF31FE0818091C00085FFFCCFE093A1
:10185000C6002F5F3F4F2617370788F3CB01089547
:101860002F923F924F925F926F927F928F929F92B0
:10187000AF92BF92CF92DF92EF92FF920F931F939E
:1018800080918400909185001C0144245524662495
:101890007724430180910A0E90910B0E30910C0E2B
:1018A00040910D0E50910E0E60910F0E7091100E22
:1018B000E091110EA22CA80E81E0A21408F080E0A5
:1018C000B32CB90E91E0B31408F090E0282F2B0D43
:1018D00081E02B1508F080E0982BB22EC32E21E07A
:1018E000341508F020E09C0D81E09C1508F080E0A4
:1018F000282BC92ED42E91E0451508F090E02D0D2F
:1019000081E02D1508F080E0982BD22EE52E21E005
:10191000561508F020E09E0D81E09E1508F080E04D
:10192000282BE92EF62E31E0671508F030E0922FD3
:101930009F0D81E09F1508F080E0382BF92E072FCE
:1019400091E0781508F090E0232F200F81E0201718
:1019500008F080E0982B022F9E0F9501A601B70199
:10196000802F0E94FF1E20E030E040E951E40E94F9
:101970007F221F910F91FF90EF90DF90CF90BF904B
:10198000AF909F908F907F906F905F904F903F901F
:101990002F900895982F8091C900882369F41092A0
:1019A000CD0089E08093CC0086E08093CA0088E077
:1019B0008093C9001092C8008091C80085FFFCCFB9
:1019C0009093CE00089510920A0E10920B0E109272
:1019D0000C0E10920D0E10920E0E10920F0E109211
:1019E000100E1092110E809180008C7F80938000E9
:1019F00080918100887F85608093810080916F0055
:101A0000816080936F0008959F92AF92BF92CF92B2
:101A1000DF92EF92FF920F931F9380918400909139
:101A200085009C0140E050E060E070E080E090E0E4
:101A3000E0900A0EE0910B0EB0910C0E10910D0E7D
:101A400000910E0EF0900F0ED090100E9090110E8F
:101A5000E20EA1E0E21608F0A0E0E30FF1E0E317E8
:101A600008F0F0E0AA2EAE0EA1E0AE1608F0A0E05D
:101A7000FA2BE1E0B41708F0E0E0BF2EBB0EF1E076
:101A8000BB1608F0F0E0EF2BF1E0151708F0F0E0DE
:101A9000CE2EC10EE1E0C11608F0E0E0FE2BE1E041
:101AA000061708F0E0E01F2F100FF1E0101708F004
:101AB000F0E0EF2BF1E0F71608F0F0E0BE2FBF0DDD
:101AC000E1E0BF1508F0E0E0FE2BA1E0D81608F039
:101AD000A0E08F2F8D0DE1E08D1508F0E0E0AE2B3A
:101AE0002E2D3A2D4B2D5C2D612F7B2F9A2F990D8A
:101AF0001F910F91FF90EF90DF90CF90BF90AF902C
:101B00009F9008951F920F920FB60F9211242F935A
:101B10003F934F935F936F937F938F939F93AF9375
:101B2000BF93EF93FF93A0910A0EB0910B0E80919B
:101B30000C0E30910D0E40910E0E60910F0EE09143
:101B4000100EF091110E282F2F5F91E0281708F04A
:101B500090E0822F792F730F91E0731708F090E0D7
:101B6000592F540F91E0541708F090E0392F360F99
:101B700091E0361708F090E0292F2E0F91E02E17F4
:101B800008F090E09F0FA0930A0EB0930B0E809385
:101B90000C0E70930D0E50930E0E30930F0E20937B
:101BA000100E9093110EFF91EF91BF91AF919F9105
:101BB0008F917F916F915F914F913F912F910F90F6
:101BC0000FBE0F901F901895982F8091C00085FF31
:101BD000FCCF9093C6000895982F8091C900882368
:101BE00069F41092CD0089E08093CC0086E0809368
:101BF000CA0088E08093C9001092C8008091C80094
:101C000085FFFCCF9093CE0008959093C5008093FC
:101C1000C40086E08093C20088E98093C1001092DE
:101C2000C00008951092CD0089E08093CC0086E03A
:101C30008093CA0088E08093C9001092C80008957C
:101C40001F920F920FB60F9211242F933F934F9331
:101C50005F936F937F938F939F93AF93BF93EF9314
:101C6000FF93F8946091C60088EF9DE00E94DB1717
:101C70007894FF91EF91BF91AF919F918F917F9158
:101C80006F915F914F913F912F910F900FBE0F90E9
:101C90001F901895F8941092C50089E08093C400B5
:101CA00086E08093C20088E98093C1001092C00052
:101CB0008CE192E00E94311088EF9DE06EEE7CE0B6
:101CC0002AE031E040E050E00E94821778940895C5
:101CD00068EF7DE00E94FD14089581E008956F9201
:101CE0007F928F929F92AF92BF92CF92DF92EF92AC
:101CF000FF920F931F93CF93DF93EC010E94300C60
:101D00007B018C01288139814A815B810E94BB2340
:101D1000882324F4E882F9820A831B83C801B7016F
:101D2000288139814A815B810E9427213B014C0136
:101D3000AC80BD80CE80DF80A60195010E945B2330
:101D400018162CF0E0E070E080E060E016C0C801FA
:101D5000B701A40193010E942721A60195010E94C9
:101D60005821688379838A839B83C401B301A601C8
:101D700095010E942721E62F692F2E2F372F482FFC
:101D8000562FB901CA01DF91CF911F910F91FF909A
:101D9000EF90DF90CF90BF90AF909F908F907F900B
:101DA0006F9008951F9390E023E0880F991F2A9564
:101DB000E1F78F5D9D4F0E946F0E10E020E030E054
:101DC00040E050E00E945B2318160CF411E0812FD4
:101DD0001F91089581E0809368020895109268022F
:101DE0000895E82FF0E0EF70F070E85AFD4F808121
:101DF000089582958F70E8E5F2E0E80FF11D80818B
:101E000008954F925F926F927F928F929F92AF92BE
:101E1000BF92CF92DF92EF92FF920F931F93CF93D7
:101E2000DF933B014C01EA0180916802882309F4A9
:101E300040C06114710481049104C1F15524A12CA6
:101E40008AECB82E8AE9C82E8BE3D82E4424C4012C
:101E5000B301A60195010E94A92779018A01E11425
:101E6000F1040105110511F4442079F08E2D805DF7
:101E70008993C801B701A60195010E948A27661AB5
:101E8000770A880A990A4424439453948AE058169E
:101E900079F0C601B5012AE030E040E050E00E9450
:101EA000A927C901DA015C016D01D1CF80E38993D3
:101EB0001882DF91CF911F910F91FF90EF90DF90EB
:101EC000CF90BF90AF909F908F907F906F905F90DA
:101ED0004F900895EF92FF920F931F93DF93CF934C
:101EE000CDB7DEB72B970FB6F894DEBF0FBECDBFD0
:101EF0007B018C01809168028823E9F017FF0BC0F9
:101F000010950095F094E094E11CF11C011D111D49
:101F10008DE20E94CA0CC801B7018E010F5F1F4FEE
:101F2000A8010E94010F02C00E94CA0CF801819111
:101F30008F018823C9F72B960FB6F894DEBF0FBE2A
:101F4000CDBFCF91DF911F910F91FF90EF9008953A
:101F50000F931F93DF93CF93CDB7DEB72B970FB6B9
:101F6000F894DEBF0FBECDBF9B01AC01809168022B
:101F7000882381F0CA01B9018E010F5F1F4FA801AC
:101F80000E94010F02C00E94CA0CF80181918F01CA
:101F90008823C9F72B960FB6F894DEBF0FBECDBFCE
:101FA000CF91DF911F910F910895AF92BF92CF9281
:101FB000DF92EF92FF920F931F935B016C01809170
:101FC0006802882309F444C0C601B5010E9449246F
:101FD0007B018C01C8010E946A0F8EE20E94CA0C2C
:101FE000C601B50120E030E04AE754E40E948521B3
:101FF0000E9449245B016C01B701C80128EE33E05F
:1020000040E050E00E948A27A61AB70AC80AD90AF7
:10201000D7FE08C0D094C094B094A094A11CB11C69
:10202000C11CD11C84E6A816B104C104D10464F417
:1020300080E30E94CA0C8AE0A816B104C104D1044E
:102040001CF480E30E94CA0CC601B5010E94A80FCF
:102050001F910F91FF90EF90DF90CF90BF90AF90C6
:102060000895CF93DF939C0180916802882339F013
:10207000E90102C00E94CA0C89918823D9F7DF9137
:10208000CF910895982F80916802882319F0892FA5
:102090000E94CA0C0895CF92DF92EF92FF920F93A5
:1020A0001F93CF93DF936C018B0189E692E00E942E
:1020B0003110B80180E090E00E94A80F81E592E025
:1020C0000E943110C0E0D0E078010894E108F108E6
:1020D00010C0F601EC0FFD1F608170E080E090E021
:1020E0000E94A80FCE15DF0518F48CE20E94421062
:1020F0002196C017D10768F384E592E00E94311061
:10210000DF91CF911F910F91FF90EF90DF90CF90D3
:1021100008950F931F93CF93DF93182F092F80916A
:10212000120E882329F481E08093120E0E94120E71
:1021300080916802882381F08AE00E94CA0C8DE0B9
:102140000E94CA0C812F902F9C01E90102C00E94BD
:10215000CA0C89918823D9F7DF91CF911F910F91F4
:102160000895CF92DF92EF92FF920F931F93CF9338
:10217000DF937C0180916802882309F4F4C088E72A
:1021800092E00E948910F7011185155F8BE50E948E
:102190004210C0E0D0E0012F10E068010894C108AF
:1021A000D10810C0F701EC0FFD1F608170E080E0E6
:1021B00090E00E94A80FCC15DD051CF48CE20E9473
:1021C00042102196C017D1076CF38DE50E94421092
:1021D00084E892E00E948910F701608170E080E05D
:1021E00090E00E94A80F81E992E00E9489106701A7
:1021F0008701C0E0D0E0F801618170E080E090E00C
:102200000E94A80FC530D10519F08AE30E94421040
:1022100021960F5F1F4FC630D10569F78BE992E019
:102220000E948910F7018781803169F0813118F4AB
:10223000882331F013C0803259F0803379F40BC019
:1022400087EA92E002C08EEA92E00E94311011C04B
:1022500082EB92E0FACF88EB92E0F7CF81EC92E04C
:102260000E948910F701678170E080E090E00E9491
:10227000A80F89EC92E00E948910F701608570E058
:1022800080E090E06F777070807090700E94A80F6F
:10229000F701808590E08F779070892B19F487ED96
:1022A00092E002C085EE92E00E94311084EF92E04D
:1022B0000E948910F701618570E080E090E00E9443
:1022C000A80F83E093E00E948910F701628570E017
:1022D00080E090E00E94A80FF70181858430A0F093
:1022E00082E193E00E948910F70183850E944210E9
:1022F000F70184850E944210F70185850E944210F3
:10230000F70186850E944210F7011185153018F1FA
:10231000145080E293E00E948910C0E0D0E0012FC9
:1023200010E078010894E108F10811C0F601678512
:1023300070E080E090E00E94A80FCE15DF051CF44D
:102340008CE20E94421021960894C11CD11CC01737
:10235000D10764F304C08BE293E00E94891086E504
:1023600092E00E948910DF91CF911F910F91FF9011
:10237000EF90DF90CF900895DC0120E030E090E016
:1023800007C0FD01E90FF11D8081280F311D9F5FFE
:102390009A30B8F39093130E90E01A968C918217AE
:1023A00009F491E0892F0895DC0120E030E090E00D
:1023B00007C0FD01E90FF11D8081280F311D9F5FCE
:1023C0009A30B8F39093130E1A962C930895FC014B
:1023D000178289E78093170E84E68093160E82E7B2
:1023E0008093150E8FE58093140E8091140E9091BA
:1023F000150EA091160EB091170E83879487A587AE
:10240000B68780858078808786E081876787408B64
:1024100086E090E00895FC01178282E78093170E12
:102420008093160E85E68093150E8FE58093140E2B
:102430008091140E9091150EA091160EB091170E6A
:1024400083879487A587B68780858078808786E094
:1024500081876787408B86E090E00895FC01618763
:10246000862F90E00895FC01218530E0255F3F4FE5
:10247000C9010895FC01818590E00895CF93DF9311
:10248000EC0120E008C0FB01EA0FFB1FAC0FBD1FF1
:102490008C9180832F5FA22FB0E0898590E00A960F
:1024A0008A179B0784F7DF91CF910895EF92FF92EF
:1024B0000F931F93E62EFF2400E010E08701FF2416
:1024C000EE2490E0A0E0B0E0B82FAA279927882753
:1024D000E80EF91E0A1F1B1F50E060E070E0762F27
:1024E000652F542F4427E40EF51E061F171FE20E1A
:1024F000F11C011D111DB701C8011F910F91FF9023
:10250000EF900895FC0183818093170E8281809360
:10251000160E81818093150E60816093140E782FC2
:102520008091160E9091170E0895AC011092130E23
:1025300020E012C0E22FF0E0322F3F5FDA01AE0F51
:10254000BF1FE60FF71F9C918081981721F0209301
:10255000130E80E00895232F263060F32093130E8E
:1025600081E008952F923F924F925F926F927F92F7
:102570008F929F92AF92BF92CF92DF92EF92FF9293
:102580000F931F93DF93CF9300D000D0CDB7DEB76A
:102590008C015A016B01DC0118962D903D904D90F5
:1025A0005C901B97C201B10120E030E040E050E0B8
:1025B0000E945B2318160CF097C0C601B501F80104
:1025C00024853585468557850E9427213B014C018E
:1025D000A20191010E94BB2388230CF077C0C401A3
:1025E000B30120E030E040E050E00E945B23181689
:1025F0000CF06CC0D801AD90BD90CD90DC901397DD
:1026000014968D919D910D90BC91A02D89839A83F4
:10261000AB83BC83C601B50129813A814B815C81C2
:102620000E9427217B018C01C201B101A401930109
:102630000E942721A20191010E947F229B01AC01EF
:1026400060E070E080E89FE30E9427219B01AC01DD
:10265000C801B7010E9485219B01AC0169817A8183
:102660008B819C810E9458213B014C01C601B50120
:1026700029813A814B815C810E945B2318169CF46E
:10268000C401B301A60195010E945B231816ECF169
:10269000C401B30129813A814B815C810E94BB2333
:1026A00087FD33C030C0C401B301A60195010E946B
:1026B000BB2387FD2AC0C401B30129813A814B8124
:1026C0005C810E945B23181604F11DC080E090E03D
:1026D000A0E0B0E0F80180879187A287B387A0804F
:1026E000B180C280D38011C0D801AD90BD90CD9093
:1026F000DC9080E090E0A0E0B0E0F8018087918776
:10270000A287B38702C064015301B501C6010F90CF
:102710000F900F900F90CF91DF911F910F91FF902D
:10272000EF90DF90CF90BF90AF909F908F907F9071
:102730006F905F904F903F902F900895FC01868599
:1027400097850895FC0180917204818380917304C0
:102750008283809174048383809175048483809143
:102760007604858380917704868383E08083CF011C
:102770000E94D41108950F931F938C01FC01808552
:1027800080688087C8010E94A213C8010E9433128A
:10279000BC01C8010E941B0C1F910F9108950F935B
:1027A0001F93FC018B01CA0120E030E0BF01A901A9
:1027B00098010E948615CB011F910F9108958F9269
:1027C0009F92BF92CF92DF92EF92FF920F931F934F
:1027D000DF93CF930F92CDB7DEB78C017B01D42E60
:1027E000FB0186859785892B31F4442309F4E5C0E4
:1027F00084E393E043C0C02EB12EC80141E050E015
:1028000060E070E097010E94F215F801808183304A
:10281000F1F42AC0C701B40121E030E040E050E00B
:102820000E94861589E493E00E948910F801608176
:1028300070E080E090E00E94A80F8C2D9B2D41E07D
:1028400050E060E070E097010E94F21504C04E0174
:102850000894811C911CF70186859785892B21F0AE
:10286000F80180818330B1F6F701868597850F974F
:1028700040F4DD2009F4A1C083E693E00E948910B2
:1028800095C08C2D9B2D4BE050E060E070E09701EF
:102890000E94F2154E010894811C911CF801808160
:1028A000833029F4C8010E94BC11882371F5F80116
:1028B0008081833019F087E793E007C0C8010E9448
:1028C000BC11882321F489E893E00E9489108AE9E9
:1028D00093E00E943110F801608170E080E090E0A8
:1028E0000E94A80FC701B40121E030E040E050E0B1
:1028F0000E9486158C2D9B2D4BE050E060E070E02F
:1029000097010E94F21520E007C0DD2021F087EA40
:1029100093E00E94891021E0F70186859785892B35
:1029200029F482EB93E00E94891047C0222309F426
:10293000B5CFF8018185082F10E00430110530F47F
:10294000DD2021F08DEC93E00E948910055F1F4F80
:10295000F7018685978580179107C8F0DD2069F01B
:102960008CEE93E00E948910B80180E090E00E9414
:10297000A80F8DEF93E00E943110980140E050E0E5
:10298000C7016C2D7B2D0E94861581E017C0DD20CC
:10299000A1F08BE194E00E948910B80180E090E002
:1029A0000E94A80F85E494E00E943110F70166852B
:1029B000778580E090E00E94A80F80E00F90CF9193
:1029C000DF911F910F91FF90EF90DF90CF90BF901C
:1029D0009F908F900895EF92FF920F931F938C0119
:1029E0007B010E94EA0EC801B70141E00E94DF139B
:1029F0001F910F91FF90EF90089540E00E94DF1328
:102A000008950F931F93CF93DF93EC010E94680EFC
:102A10008823F1F18DE494E00E948910CE010E9498
:102A2000B1108E010F5F1F4F82E794E0B8010E9442
:102A30009512813039F08CE694E0B8010E9495122D
:102A4000813011F5CE010E94341A90E00BC0E92FBD
:102A5000F0E0DE01AE0FBF1FEE58FB4F80811196F4
:102A60008C939F5F963098F39093180ECE010E943E
:102A7000D411CE010E94BB1382E594E00E9489101C
:102A8000CE010E94B11004C08CE594E00E94891030
:102A900080E0DF91CF911F910F9108950E94E30C88
:102AA0000E944A0E81E168E774E00E947E18089552
:102AB000CF93DF93EC0120E030E040E050E009C02C
:102AC000EC81FD81E20FF31F10822F5F3F4F4F4FCC
:102AD0005F4F88819981AA81BB81281739074A07EE
:102AE0005B0770F32093190E30931A0E40931B0E60
:102AF00050931C0EDF91CF910895FC01A481B58104
:102B000086819781A80FB91F8C910895AF92BF92CB
:102B1000CF92DF92EF92FF920F931F93CF93DF93A9
:102B2000EC0159016A01EE24FF24870140C08E8523
:102B30009F85A889B9890097A105B10579F1EC8134
:102B4000FD818E819F81E80FF91F8081FB018083C9
:102B50008E819F81A885B9850196A11DB11D8E83A7
:102B60009F83A887B987288139814A815B81821731
:102B70009307A407B50721F41E821F8218861986C1
:102B8000F8948E859F85A889B9890197A109B10913
:102B90008E879F87A88BB98B789402C0FB01108227
:102BA0000894E11CF11C011D111D6F5F7F4FEA1499
:102BB000FB040C051D0508F4BACFE092190EF09243
:102BC0001A0E00931B0E10931C0EB701C801DF9163
:102BD000CF911F910F91FF90EF90DF90CF90BF901A
:102BE000AF900895AF92BF92CF92DF92EF92FF9293
:102BF0000F931F93CF93DF935A016B01B901D90152
:102C00001696ED90FD900D911C911997EC0120E026
:102C100030E040E050E029C0FB0186859785A0891F
:102C2000B1890097A105B105D1F00480F581E02DAF
:102C3000EE0DFF1D808188830894E11CF11C011DAD
:102C4000111DFB0180819181A281B381E816F906F3
:102C50000A071B0729F4EE24FF24870101C018820C
:102C60002F5F3F4F4F4F5F4F21962A153B054C0575
:102C70005D0590F22093190E30931A0E40931B0EAF
:102C800050931C0EB901CA01DF91CF911F910F9192
:102C9000FF90EF90DF90CF90BF90AF900895CF93CB
:102CA000DF93EC017D836C83288339834A835B83C4
:102CB0001E821F82188619861A861B861C861D8610
:102CC00020E030E040E050E011C0C901880F991FBA
:102CD000880F991FEC81FD81E80FF91F1082118286
:102CE000128213822F5F3F4F4F4F5F4F8881998130
:102CF000AA81BB81281739074A075B0730F3209365
:102D0000190E30931A0E40931B0E50931C0EDF9138
:102D1000CF910895CF93DF93EC0120E030E040E0C5
:102D200050E011C0C901880F991F880F991FEC81CD
:102D3000FD81E80FF91F10821182128213822F5F2A
:102D40003F4F4F4F5F4F88819981AA81BB812817E0
:102D500039074A075B0730F32093190E30931A0E98
:102D600040931B0E50931C0EDF91CF910895EF926C
:102D7000FF920F931F93CF93DF93EC018A859B857E
:102D8000880F991F880F991FEC81FD81E80FF91FAB
:102D900040835183628373838A859B85AC85BD851F
:102DA0000196A11DB11D8A879B87AC87BD872881AD
:102DB00039814A815B8182179307A407B50721F403
:102DC0001A861B861C861D868E859F85A889B989D3
:102DD0000196A11DB11D8E879F87A88BB98BEE240C
:102DE000FF248701288139814A815B8128173907AF
:102DF0004A075B0728F0E1E0EE2EF12C012D112DA2
:102E0000B701C801DF91CF911F910F91FF90EF9013
:102E10000895AF92BF92CF92DF92EF92FF920F93FD
:102E20001F93CF93DF93EC0159016A01EE24FF2435
:102E300087014DC08E859F85A889B9890097A10516
:102E4000B105C9F18E819F81880F991F880F991F45
:102E5000EC81FD81E80FF91F80819181A281B3810E
:102E6000FB0180839183A283B3838E819F81A88598
:102E7000B9850196A11DB11D8E839F83A887B9874F
:102E8000288139814A815B8182179307A407B5079E
:102E900021F41E821F8218861986F8948E859F85DC
:102EA000A889B9890197A109B1098E879F87A88B45
:102EB000B98B789405C0FB011082118212821382B3
:102EC0000894E11CF11C011D111D6C5F7F4FEA1479
:102ED000FB040C051D0508F4ADCFE092190EF0922D
:102EE0001A0E00931B0E10931C0EB701C801DF9140
:102EF000CF911F910F91FF90EF90DF90CF90BF90F7
:102F0000AF900895CF92DF92EF92FF920F931F93AD
:102F1000CF93DF93EC016B0179018A01009719F0DF
:102F20006115710541F489E894E00E948910C80197
:102F3000B7010E94A80FDD82CC82E882F9820A8361
:102F40001B831E821F82188619861A861B861C8682
:102F50001D8620E030E040E050E009C0EC81FD81BA
:102F6000E20FF31F10822F5F3F4F4F4F5F4F88815B
:102F70009981AA81BB81281739074A075B0770F33B
:102F80002093190E30931A0E40931B0E50931C0E73
:102F90008091CA049091CB040E948910C801B701A6
:102FA0000E94A80FDF91CF911F910F91FF90EF909A
:102FB000DF90CF900895EF92FF920F931F93CF93DE
:102FC000DF93EC0188819981AA81BB810297A109D5
:102FD000B1092E853F8548895989281739074A073D
:102FE0005B07D0F08091F7049091F8040E9489105B
:102FF000688179818A819B810E94A80F87EA94E089
:103000000E9431106E857F85888999890E94A80F5A
:10301000EE24FF2487013BC0EC81FD818A859B85DE
:10302000E80FF91F60838A859B85AC85BD85019675
:10303000A11DB11D8A879B87AC87BD8728813981F7
:103040004A815B8182179307A407B50721F41A868A
:103050001B861C861D868E859F85A889B989019649
:10306000A11DB11D8E879F87A88BB98BEE24FF24ED
:103070008701288139814A815B81281739074A07EE
:103080005B0728F0B1E0EB2EF12C012D112DB701DB
:10309000C801DF91CF911F910F91FF90EF9008959C
:1030A00061157105F1F0803261F0803391F080316B
:1030B000C1F481E080934D0F70934F0F60934E0FDA
:1030C000089581E08093EF0E7093F10E6093F00EFF
:1030D000089581E08093910E7093930E6093920E09
:1030E000089580E008952091510F3091520F409142
:1030F000530F5091540FB901CA010895FF920F93D5
:103100001F93F82E8B0189EF94E00E948910C8016B
:103110000E94311020911D0E822F90E0FC01EE0FD5
:10312000FF1FE80FF91FE35EF14FF1821383028363
:103130002F5F20931D0E1F910F91FF900895EF9226
:10314000FF920F931F93CF93DF937C018B01FB01C1
:103150008081882391F18EE095E00E948910F8012A
:10316000708160E024C0862F90E0EC01CC0FDD1F61
:10317000C80FD91FCC0FDD1FC00FD11F29813A8185
:103180004B815C81F70183859485A585B6852817D9
:1031900039074A075B0751F480E295E00E9431103D
:1031A000ED81FE81C701099581E00CC06F5F671753
:1031B000D0F285E395E00E94311088E495E00E940A
:1031C000891080E0DF91CF911F910F91FF90EF90D8
:1031D0000895CF93DF93EC011092500F66E37EE0E9
:1031E0000E949F188130B1F08091910E882391F058
:1031F0008CE595E00E948910E091920EF091930E7B
:10320000CE010995882331F4CE016091500F43E03F
:103210000E940B12DF91CF910895CF93DF93EC01C1
:103220001092500F64E97EE00E949F188130B1F047
:103230008091EF0E882391F08CE595E00E94891033
:10324000E091F00EF091F10ECE010995882331F452
:10325000CE016091500F42E00E940B12DF91CF919E
:10326000089560E040E00E940B120895EF92FF92F3
:103270000F931F93CF93DF937B01EA0108810F30F7
:1032800011F480E016C010E00E948212F801EE0FE7
:10329000FF1FE00FF11FEE0FFF1FEC0FFD1F6183FB
:1032A000728383839483F682E58288818F5F88832B
:1032B00081E0DF91CF911F910F91FF90EF900895E2
:1032C00041155105B9F0803249F0803361F0803109
:1032D00089F4CB01BA0142EF5EE009C0CB01BA012B
:1032E00044E95EE004C0CB01BA0146E35EE00E941F
:1032F0003619089580E00895EF92FF920F931F937F
:10330000DF93CF9300D00F92CDB7DEB78C01109230
:10331000500FFC0183859485A585B6858F35F0E730
:103320009F07FEE6AF07F7E6BF0739F08F559E46C9
:10333000AD46B34709F06DC00FC080E2F801878346
:103340008BE695E00E948212F80163877487858777
:10335000968784E081877EC0F80181858430B9F446
:1033600085E0818780E2878380911D0E878780E7D3
:1033700095E00E94891060911D0E70E080E090E061
:103380000E94A80F86E795E00E94891063C08530EF
:10339000E1F5F801978580911D0E981790F582E868
:1033A00095E00E94311084E0F801818780E28783F4
:1033B000878590E0FC01EE0FFF1FE80FF91FDE018B
:1033C0001196E25EF14F83E001900D928150E1F79A
:1033D000EA80FB80C7010E94311090E009C0A00F75
:1033E000B11F1F96EC93F80181858F5F81879F5FE6
:1033F000A92FB0E0F701EA0FFB1FE081EE2379F778
:1034000029C0C80160E045E023C0C80160E044E095
:103410001FC0C80162EF7EE00E949F188130D1F08A
:1034200080914D0F8823B1F08CE595E00E948910C2
:10343000E0914E0FF0914F0FC8010995882351F488
:103440008DE895E00E948910C8016091500F41E01D
:103450000E940B120F900F900F90CF91DF911F9150
:103460000F91FF90EF900895CF93DF93EC018F8140
:10347000803171F0813118F4882331F015C0803229
:1034800059F0803389F40CC0CE0160E040E00FC0F9
:10349000CE010E947C190DC0CE010E940D1909C0F9
:1034A000CE010E94E91805C0CE0160E04FE70E94FE
:1034B0000B1280E888870E94300C6093510F709344
:1034C000520F8093530F9093540FDF91CF91089533
:1034D0008F929F92AF92BF92CF92DF92EF92FF9224
:1034E0000F931F93DF93CF93CDB7DEB7FC014083DB
:1034F0005183628373830483158326833783C08655
:10350000D186E286F386118E108EE655FE4F80E05E
:1035100090E0A0E0B0E080839183A283B383EA5A75
:10352000F140AF0120E030E07C018D01DA015A96D4
:10353000ED92FD920D931C935D972F5F3F4F4C5F73
:103540005F4F2436310591F7E486F58606871787A5
:10355000E08AF18A028B138BE48AF58A068B178B3B
:10356000E255FE4FE192F192019311938082918294
:10357000A282B382CF91DF911F910F91FF90EF90C4
:10358000DF90CF90BF90AF909F908F9008952F9233
:103590003F924F925F926F927F928F929F92AF92E3
:1035A000BF92CF92DF92EF92FF920F931F93DF9320
:1035B000CF9300D000D0CDB7DEB71C0149835A832A
:1035C0006B837C83DC011C966D917D918D919C9128
:1035D0001F9750962D913D914D915C9153970E946C
:1035E00027214B015C013AEAE32E31E0F32EE20C95
:1035F000F31CF101008D118DF801EE0FFF1FEE0F8E
:10360000FF1FE20DF31DD7016D917D918D919C916E
:10361000228D338D448D558D0E942721A501940163
:103620000E945821F7016083718382839383D101C3
:1036300054964D905D906D907C905797F101848ADF
:10364000958AA68AB78A0F5F1F4F118F008F0436A5
:10365000110511F4118E108ED1015896ED91FC9147
:103660005997EE0FFF1FEE0FFF1FE20DF31D828E25
:10367000938EA48EB58E8EEAC82E81E0D82EC20C11
:10368000D31CC501B4012D913D914D915C910E94D7
:1036900085217B018C01C501B401A30192010E9427
:1036A0002721F10120853185428553850E9485219E
:1036B0009B01AC01C801B7010E9458217B018C011C
:1036C000F101E655FE4F608171818281938120E096
:1036D00030E048EC52E40E947F22D10114962D91F3
:1036E0003D914D915C9117970E9485219B01AC0102
:1036F000C801B7010E945821F6016083718382835B
:10370000938382EB91E0280E391E89819A81AB81E7
:10371000BC81F10180839183A283B3838EE49EEF09
:10372000280E391E81EA95E00E948910D1011C966D
:103730006D917D918D919C911F970E94D50F8FEA7D
:1037400095E00E943110F101608971898289938925
:103750000E94D50F83EC95E00E943110C501B401A1
:103760000E94D50F8FEC95E00E943110D6016D912B
:103770007D918D919C910E94D50F0F900F900F908D
:103780000F90CF91DF911F910F91FF90EF90DF90FD
:10379000CF90BF90AF909F908F907F906F905F90F1
:1037A0004F903F902F900895982F80917C008F73B9
:1037B00080937C0080917C008F7D80937C00809141
:1037C0007A00806880937A0080917A00877F809366
:1037D0007A0080917A00876080937A0010927B0053
:1037E000933061F1943028F49130B1F09230E8F4E4
:1037F0000AC09530A9F1953050F19630D1F197304B
:1038000009F04AC03FC080917E00816080937E00B5
:10381000809121008E7F3EC080917E0082608093E7
:103820007E00809121008D7F35C080917E00846074
:1038300080937E00809121008B7F2CC080917E0040
:10384000886080937E0080912100877F23C08091D3
:103850007E00806180937E00809121008F7E1AC05F
:1038600080917E00806280937E00809121008F7D18
:1038700011C080917E00806480937E008091210041
:103880008F7B08C080917E00806880937E0080914D
:1038900021008F778093210081E008958330E1F04B
:1038A000843028F4813081F0823090F409C0853072
:1038B000D9F08530A8F08630D9F0873021F51EC0C8
:1038C00080917E008E7F17C080917E008D7F13C017
:1038D00080917E008B7F0FC080917E00877F0BC020
:1038E00080917E008F7E07C080917E008F7D03C017
:1038F00080917E008F7B80937E00089580917E0072
:103900008F7780937E0008951F93182F0E94D41BF9
:10391000183018F02FEF3FEF16C01F7180917C0018
:10392000807E812B80937C0080917A0080648093DC
:103930007A0080917A0086FDFCCF80917800282F54
:1039400080917900382FC9011F910895809124003A
:1039500080628093240080912400806880932400FA
:10396000809124008F7B80932400809164008B7F62
:103970008093640080914C008F7780934C008091FD
:103980004C00806480934C0080914C008F7D80932C
:103990004C0080914C00806180934C0080914C00E1
:1039A000877F80934C0080914C008B7F80934C00EC
:1039B00080914C00836080934C0080914D008E7FFD
:1039C00080934D000895982F8091240084FD05C0B8
:1039D0008091250080618093250080914C0086FDB8
:1039E00005C080914C00806480934C0080914C0015
:1039F00084FD05C080914C00806180934C008091D3
:103A00004D0087FD8EB59EBD80914D0087FFFCCF98
:103A10008EB508959B01AC01203880E7380780E01F
:103A2000480780E0580709F472C0213880E738075A
:103A300080E0480780E05807A8F5203885E238077D
:103A400080E0480780E0580709F461C0213885E22A
:103A5000380780E0480780E0580798F4203689E06E
:103A6000380780E0480780E0580709F450C0203C40
:103A700082E1380780E0480780E0580709F043C03A
:103A800046C0203488E3380780E0480780E05807C4
:103A9000F1F120308BE4380780E0480780E05807D8
:103AA00091F535C020308CE2380781E0480780E08E
:103AB000580769F121308CE2380781E0480780E03F
:103AC000580788F4203086E9380780E0480780E00E
:103AD0005807E9F0203081EE380780E0480780E0A1
:103AE000580789F414C0203082EC380781E0480779
:103AF00080E0580761F0203084E8380783E0480709
:103B000080E0580721F020E032EC41E050E060E036
:103B100074E981E190E00E94A92721503040309360
:103B2000CD002093CC008091CA0082608093CA00AF
:103B30008091CA0084608093CA008091C900886027
:103B40008093C9001092C8000895EF92FF920F93DE
:103B50001F93182F062F7A01883008F047C083E0A2
:103B60008093550F1092560F1092570F1092580FC6
:103B70001092590F10925A0F10925B0F10925D0F16
:103B800080E280935C0F88E080935E0F85E59FE084
:103B90000E94D41182EE95E00E9482126093600F21
:103BA0007093610F8093620F9093630F8FE0811B7E
:103BB0008093640F0093650FF092660FE092670F99
:103BC00085E59FE00E945F1E813061F487EE95E0FD
:103BD0000E948910602F70E080E090E00E94A80FA2
:103BE00081E005C08EEF95E00E94891080E01F9172
:103BF0000F91FF90EF90089580917C0F882339F406
:103C000081E080937C0F80E094EB0197F1F7809145
:103C10002400806280932400809124008068809337
:103C20002400809124008F7B809324008091640085
:103C30008B7F8093640080914C008F7780934C0041
:103C400080914C00806480934C0080914C008F7D6B
:103C500080934C0080914C00806180934C00809157
:103C60004C00877F80934C0080914C008B7F809329
:103C70004C0080914C008C7F80934C0080914D00D3
:103C80008E7F80934D008091270082608093270073
:103C900080912800826080932800809127008E7F89
:103CA000809327000895982F8091260080FDFCCFF7
:103CB000892F0E94E31C95EF9A95F1F70895CF9212
:103CC000DF92EF92FF920F931F93CF93DF936C01DC
:103CD0000E94FC1D809128008D7F809328008DE339
:103CE0008A95F1F7F6018185E82EFF248BE090E0BC
:103CF000E80EF91E8601C0E0D0E0F80180810E9444
:103D0000531EF80181938F012196CE15DF05ACF388
:103D10008FEF0E94531E11E0C0E0D4E207C01F5F86
:103D20008FEF0E94531EFE013197F1F78F3F11F480
:103D30001436A9F7F6018083C1E0D0E08FEF0E942E
:103D4000531EF601EC0FFD1F80832196CB30D10569
:103D5000A9F708C08FEF0E94531EF601EC0FFD1F5C
:103D600080832196F601818590E00A968C179D0745
:103D70008CF78091280082608093280020E0838562
:103D80009485A585B6858F559247A446B94709F411
:103D900021E0822FDF91CF911F910F91FF90EF9043
:103DA000DF90CF900895EF92FF920F931F937B01C6
:103DB0008C0120E030E040E05FE40E948B23882308
:103DC0008CF0C801B70120E030E040E05FE40E94E1
:103DD00027210E9449249B01AC01205030404040E3
:103DE000504806C0C801B7010E9449249B01AC019C
:103DF000B901CA011F910F91FF90EF900895A2E0C1
:103E0000B0E0E5E0FFE10C94CB27122FB32EA42EF7
:103E1000952E862E372E282E9A83C22ED32EE42E50
:103E2000F52EA701960160E070E080E090E0211798
:103E3000A1F43B1591F44A1581F4591571F46815F4
:103E400061F4731551F4821541F4AA819A1729F48B
:103E5000C701B6010E949D24AAC0212F3B2D4A2DE7
:103E6000592D682D732D822D9A8100E20E9416250E
:103E7000C901DA018030E0E09E07E1E0AE07E0E052
:103E8000BE0780F48F3F9105A105B10531F028F000
:103E900028E030E040E050E016C020E030E040E0B4
:103EA00050E011C08030F0E09F07F0E0AF07F1E094
:103EB000BF0728F028E130E040E050E004C020E1F6
:103EC00030E040E050E0022E04C0B695A7959795EB
:103ED00087950A94D2F7FC01E55EF94F80812901AC
:103EE0003A01480E511C611C711C4982212F3B2D47
:103EF0004A2D592D682D732D822D9A81042D0E94F3
:103F00001625C901DA014C015D0180E290E08419B7
:103F1000950904C0CC0CDD1CEE1CFF1C8A95D2F761
:103F2000C114D104E104F10441F081E090E0A0E08B
:103F3000B0E0882A992AAA2ABB2A90E2491651049D
:103F40006104710459F40F2EF0E0EF2EF0E0FF2E23
:103F5000F0E80F2FFFE41F2FF02D21C0AFE14A162C
:103F600051046104710459F40F2EF0E0EF2EF0E0DB
:103F7000FF2EF0E00F2FFFE41F2FF02D10C061E0A7
:103F800070E080E090E0098004C0660F771F881F12
:103F9000991F0A94D2F70E94EB237B018C01C50183
:103FA000B4010E949D24A80197010E9485212296B8
:103FB000E2E10C94E727A0E0B0E0E1EEFFE10C9431
:103FC000CB27DC012B01FA019C91923008F439C116
:103FD000EB018881823008F433C1943069F4843075
:103FE00009F02FC111969C9111978981981709F4B6
:103FF00028C1A3E1B6E025C1843009F421C1823093
:10400000A9F4923009F01DC19A01AD0188E0EA01DE
:104010000990AE01E90109929E018150C1F7E201C8
:10402000898111969C918923818308C1923009F47A
:1040300007C112962D903C901397EB018A819B81CA
:104040001496AD90BD90CD90DC901797EC80FD80DC
:104050000E811F819101281B390BB90137FF04C064
:1040600066277727621B730B603271050CF061C005
:10407000121613066CF537014801062E04C09694FB
:104080008794779467940A94D2F721E030E040E077
:1040900050E004C0220F331F441F551F6A95D2F70A
:1040A00021503040404050402E213F214023512399
:1040B000211531054105510521F021E030E040E0B6
:1040C00050E079018A01E628F728082919293CC01F
:1040D000232BD1F1260E371E35014601062E04C0D2
:1040E00096948794779467940A94D2F721E030E00D
:1040F00040E050E004C0220F331F441F551F6A9553
:10410000D2F721503040404050402A213B214C21E1
:104110005D21211531054105510521F021E030E0F7
:1041200040E050E059016A01A628B728C828D928DC
:104130000BC0821593052CF01C01AA24BB24650139
:1041400003C0EE24FF24870111969C91D2011196A1
:104150008C91981709F445C0992339F0A80197016B
:104160002A193B094C095D0906C0A60195012E19C3
:104170003F09400B510B57FD08C011823382228248
:1041800024833583468357831DC081E08183338236
:10419000228288279927DC01821B930BA40BB50B85
:1041A00084839583A683B7830DC0220F331F441FDA
:1041B000551F2483358346835783828193810197DA
:1041C000938382832481358146815781DA01C90135
:1041D0000197A109B1098F5F9F4FAF4FBF4328F3EC
:1041E0000BC0918333822282EA0CFB1C0C1D1D1D27
:1041F000E482F5820683178383E0808324813581FE
:104200004681578157FF1AC0C901AA2797FDA0957B
:10421000BA2F81709070A070B07056954795379501
:104220002795822B932BA42BB52B84839583A68370
:10423000B78382819381019693838283DF0101C0DA
:10424000D201CD01CDB7DEB7E2E10C94E727A0E2C1
:10425000B0E0EDE2F1E20C94D72769837A838B8397
:104260009C832D833E834F835887E9E0EE2EF12C0B
:10427000EC0EFD1ECE010196B7010E94B9268E01FB
:104280000F5E1F4FCE010596B8010E94B9268A899C
:1042900091E089278A8BC701B801AE01475E5F4F65
:1042A0000E94DB1F0E94E425A096E6E00C94F32711
:1042B000A0E2B0E0EEE5F1E20C94D72769837A83BF
:1042C0008B839C832D833E834F835887F9E0EF2EA9
:1042D000F12CEC0EFD1ECE010196B7010E94B9260D
:1042E0008E010F5E1F4FCE010596B8010E94B926C0
:1042F000C701B801AE01475E5F4F0E94DB1F0E94FD
:10430000E425A096E6E00C94F327A0E2B0E0EBE809
:10431000F1E20C94CB2769837A838B839C832D8372
:104320003E834F835887CE010196BE01675F7F4F62
:104330000E94B926CE010596BE016F5E7F4F0E9496
:10434000B9269985923088F089898230C8F09430F6
:1043500019F4823051F404C0843029F4923081F48D
:1043600083E196E0C6C0923049F420E09A858A89BC
:10437000981321E02A87CE010996BBC0823049F408
:1043800020E09A858A89981321E02A8BCE014196F4
:10439000B0C02D843E844F8458886D887E888F8875
:1043A000988CEE24FF248701AA24BB24650140E0F9
:1043B00050E060E070E0E0E0F0E0C10181709070FA
:1043C000892BE9F0E60CF71C081D191D9A01AB01B9
:1043D0002A0D3B1D4C1D5D1D80E090E0A0E0B0E08B
:1043E000E614F7040805190520F481E090E0A0E048
:1043F000B0E0BA01A901480F591F6A1F7B1FAA0C20
:10440000BB1CCC1CDD1C97FE08C081E090E0A0E046
:10441000B0E0A82AB92ACA2ADB2A3196E032F1058F
:1044200049F0660C771C881C991C56944794379465
:104430002794C3CFFA85EA892B893C898B859C8593
:10444000280F391F2E5F3F4F17C0CA01817090702F
:10445000892B61F016950795F794E79480E090E03A
:10446000A0E0B0E8E82AF92A0A2B1B2B769567957D
:10447000579547952F5F3F4F77FDE7CF0CC0440F0F
:10448000551F661F771F17FD4160EE0CFF1C001FB4
:10449000111F21503040403090E0590790E06907EB
:1044A00090E4790760F32B8F3C8FDB01CA018F7793
:1044B0009070A070B07080349105A105B10561F4D1
:1044C00047FD0AC0E114F1040105110529F0405C23
:1044D0005F4F6F4F7F4F40781A8EFE1711F081E0CB
:1044E0008A8F4D8F5E8F6F8F78A383E0898FCE0187
:1044F00049960E94E425A096E2E10C94E727A8E102
:10450000B0E0E5E8F2E20C94D32769837A838B83E9
:104510009C832D833E834F835887B9E0EB2EF12C8B
:10452000EC0EFD1ECE010196B7010E94B9268E0148
:104530000F5E1F4FCE010596B8010E94B92629854E
:10454000223008F47EC03989323010F4B8017CC0C2
:104550008A859A8989278A87243011F0223031F49C
:10456000231709F06EC063E176E06EC0343039F491
:104570001D861E861F86188A1C861B8604C0323044
:1045800021F484E08987B7015FC02B853C858B8946
:104590009C89281B390B3C872B87ED84FE840F8573
:1045A0001889AD88BE88CF88D88CEA14FB040C0526
:1045B0001D0540F4EE0CFF1C001F111F2150304060
:1045C0003C872B8720E030E040E050E080E090E046
:1045D000A0E0B0E460E070E0EA14FB040C051D0507
:1045E00040F0282B392B4A2B5B2BEA18FB080C09CF
:1045F0001D09B695A79597958795EE0CFF1C001F92
:10460000111F6F5F7F4F6F31710531F7DA01C901FB
:104610008F779070A070B07080349105A105B105BE
:1046200061F427FD0AC0E114F1040105110529F028
:10463000205C3F4F4F4F5F4F20782D873E874F873D
:10464000588BBE01675F7F4FCB010E94E4256896BF
:10465000EAE00C94EF27A8E1B0E0E1E3F3E20C9488
:10466000D72769837A838B839C832D833E834F83F3
:10467000588789E0E82EF12CEC0EFD1ECE01019644
:10468000B7010E94B9268E010F5E1F4FCE0105961D
:10469000B8010E94B9268985823040F0898982302C
:1046A00028F0C701B8010E94312701C081E0689657
:1046B000E6E00C94F327A8E1B0E0E1E6F3E20C9425
:1046C000D72769837A838B839C832D833E834F8393
:1046D000588789E0E82EF12CEC0EFD1ECE010196E4
:1046E000B7010E94B9268E010F5E1F4FCE010596BD
:1046F000B8010E94B9268985823040F089898230CC
:1047000028F0C701B8010E94312701C08FEF6896D9
:10471000E6E00C94F327A8E1B0E0E1E9F3E20C94C1
:10472000D72769837A838B839C832D833E834F8332
:10473000588789E0E82EF12CEC0EFD1ECE01019683
:10474000B7010E94B9268E010F5E1F4FCE0105965C
:10475000B8010E94B9268985823040F0898982306B
:1047600028F0C701B8010E94312701C08FEF689679
:10477000E6E00C94F327A8E1B0E0E1ECF3E20C945E
:10478000D72769837A838B839C832D833E834F83D2
:10479000588789E0E82EF12CEC0EFD1ECE01019623
:1047A000B7010E94B9268E010F5E1F4FCE010596FC
:1047B000B8010E94B9268985823040F0898982300B
:1047C00028F0C701B8010E94312701C081E0689636
:1047D000E6E00C94F327A8E0B0E0E1EFF3E20C94FC
:1047E000D4279B01AC0183E08983DA01C9018827C2
:1047F000B7FD83959927AA27BB27B82E2115310528
:104800004105510519F482E089833AC08823A9F053
:10481000203080E0380780E0480780E8580729F416
:1048200060E070E080E09FEC30C0EE24FF24870160
:10483000E21AF30A040B150B02C079018A018EE11A
:10484000C82ED12CDC82CB82ED82FE820F831887AA
:10485000C801B7010E94952501971816190684F41E
:10486000082E04C0EE0CFF1C001F111F0A94D2F783
:10487000ED82FE820F831887C81AD90ADC82CB82A8
:10488000BA82CE0101960E94E4252896E9E00C94B4
:10489000F027ACE0B0E0EFE4F4E20C94DB276983AE
:1048A0007A838B839C83CE010196BE016B5F7F4F21
:1048B0000E94B9268D81823061F1823050F18430BE
:1048C00021F48E81882351F12EC02F81388537FD48
:1048D00020C06E812F3131051CF06623F9F023C012
:1048E0008EE190E0821B930B29853A854B855C8590
:1048F00004C056954795379527958A95D2F7662334
:10490000B1F050954095309521953F4F4F4F5F4FF7
:104910000EC020E030E040E050E009C02FEF3FEF54
:104920004FEF5FE704C020E030E040E050E8B9011D
:10493000CA012C96E2E00C94F727A8E0B0E0E3EA85
:10494000F4E20C94D3277B018C016115710581057C
:10495000910519F482E0898360C083E089838EE148
:10496000C82ED12CDC82CB82ED82FE820F83188789
:10497000C801B7010E949525FC013197F7FF3BC0A4
:10498000222733272E1B3F0B57016801022E04C03C
:10499000D694C794B794A7940A94D2F740E050E015
:1049A00060E070E081E090E0A0E0B0E004C0880F3B
:1049B000991FAA1FBB1F2A95D2F70197A109B10918
:1049C0008E219F21A023B1230097A105B10521F0DD
:1049D00041E050E060E070E04A295B296C297D29C4
:1049E0004D835E836F8378878EE190E08E1B9F0BF3
:1049F0009C838B8312C0309781F00E2E04C0EE0C86
:104A0000FF1C001F111F0A94D2F7ED82FE820F8354
:104A10001887CE1ADF0ADC82CB821A82CE01019679
:104A20000E94E4252896EAE00C94EF27EF92FF928B
:104A30000F93DF93CF93CDB7DEB760970FB6F8949F
:104A4000DEBF0FBECDBFA82F002309F461C07E01D9
:104A50000894E11CF11C88E0F70111928A95E9F7AE
:104A600029833A834B835C836D837E83AF839887EE
:104A700080E2801BE82FFF27E7FDF0954D815E81E6
:104A80006F817885181684F01D861E861F86188A09
:104A9000882799278E1B9F0B04C07695679557959D
:104AA00047958A95D2F728C0202F332727FD3095C8
:104AB000DB01CA01022E04C0B695A795979587958C
:104AC0000A94D2F78D879E87AF87B88B04C0440FB6
:104AD000551F661F771FEA95D2F789819A81AB81AE
:104AE000BC8104C0B695A795979587952A95D2F76E
:104AF000482B592B6A2B7B2B49875A876B877C87DE
:104B000029853A854B855C856D857E85AF8598893D
:104B10008A2F60960FB6F894DEBF0FBECDBFCF913F
:104B2000DF910F91FF90EF900895EF92FF920F9316
:104B30001F937B018C0180E0E81680E0F80681E09D
:104B4000080780E0180788F48FEFE816F1040105E4
:104B5000110531F028F088E090E0A0E0B0E017C047
:104B600080E090E0A0E0B0E012C080E0E81680E0D5
:104B7000F80680E0080781E0180728F088E190E057
:104B8000A0E0B0E004C080E190E0A0E0B0E020E26E
:104B900030E040E050E0281B390B4A0B5B0B04C0AF
:104BA00016950795F794E7948A95D2F7F701E55E95
:104BB000F94F8081281B310941095109C9011F9111
:104BC0000F91FF90EF900895DF92EF92FF920F9375
:104BD0001F93FC01E480F58006811781D1808081DC
:104BE000823048F480E090E0A0E1B0E0E82AF92AC1
:104BF0000A2B1B2BA5C0843009F49FC0823021F4FE
:104C0000EE24FF24870105C0E114F104010511051C
:104C100019F4E0E0F0E096C0628173819FEF6238A2
:104C200079070CF05BC022E83FEF261B370B2A31D7
:104C300031052CF020E030E040E050E02AC0B8011F
:104C4000A701022E04C076956795579547950A945B
:104C5000D2F781E090E0A0E0B0E004C0880F991F97
:104C6000AA1FBB1F2A95D2F70197A109B1098E216E
:104C70009F21A023B1230097A105B10521F081E078
:104C800090E0A0E0B0E09A01AB01282B392B4A2B31
:104C90005B2BDA01C9018F779070A070B0708034FF
:104CA0009105A105B10539F427FF09C0205C3F4FEC
:104CB0004F4F5F4F04C0215C3F4F4F4F5F4FE0E0CD
:104CC000F0E02030A0E03A07A0E04A07A0E45A074D
:104CD00010F0E1E0F0E079018A0127C06038710549
:104CE00064F5FB01E158FF4FD801C7018F77907041
:104CF000A070B07080349105A105B10539F4E7FECC
:104D00000DC080E490E0A0E0B0E004C08FE390E04C
:104D1000A0E0B0E0E80EF91E0A1F1B1F17FF05C038
:104D200016950795F794E794319687E016950795C1
:104D3000F794E7948A95D1F705C0EE24FF24870104
:104D4000EFEFF0E06E2F679566276795902F9F77BE
:104D5000D794DD24D7948E2F8695492F462B582F34
:104D60005D29B701CA011F910F91FF90EF90DF906D
:104D70000895FC01DB01408151812281622F6F7710
:104D800070E0221F2227221F9381892F880F822BF8
:104D9000282F30E0991F9927991F11969C931197FE
:104DA00021153105A9F5411551056105710511F46C
:104DB00082E037C082E89FEF13969C938E93129700
:104DC0009A01AB0167E0220F331F441F551F6A95FC
:104DD000D1F783E08C930DC0220F331F441F551F62
:104DE00012968D919C911397019713969C938E9395
:104DF0001297203080E0380780E0480780E45807A9
:104E000058F314962D933D934D935C931797089503
:104E10002F3F310579F4411551056105710519F4EC
:104E200084E08C93089564FF03C081E08C9312C0EA
:104E30001C9210C02F57304013963C932E9312971C
:104E400083E08C9387E0440F551F661F771F8A9578
:104E5000D1F7706414964D935D936D937C9317977F
:104E600008951F93DC01FB019C91923008F447C028
:104E70008081823008F443C0943051F411961C9123
:104E8000843099F58181682F70E0611B71093FC002
:104E9000843021F0923031F48230B9F1818188235D
:104EA00089F12DC011961C9111978230F1F081810A
:104EB0001817D9F412962D913C9113978281938102
:104EC0008217930794F028173907BCF014968D9138
:104ED0009D910D90BC91A02D2481358146815781F3
:104EE000281739074A075B0718F4112341F00AC055
:104EF00082179307A407B50740F4112319F061E066
:104F000070E005C06FEF7FEF02C060E070E0CB01A2
:104F10001F910895629FD001739FF001829FE00D61
:104F2000F11D649FE00DF11D929FF00D839FF00D28
:104F3000749FF00D659FF00D9927729FB00DE11DD4
:104F4000F91F639FB00DE11DF91FBD01CF011124B1
:104F50000895A1E21A2EAA1BBB1BFD010DC0AA1FBA
:104F6000BB1FEE1FFF1FA217B307E407F50720F0D2
:104F7000A21BB30BE40BF50B661F771F881F991F4D
:104F80001A9469F760957095809590959B01AC0196
:104F9000BD01CF0108952F923F924F925F926F9281
:104FA0007F928F929F92AF92BF92CF92DF92EF92B9
:104FB000FF920F931F93CF93DF93CDB7DEB7CA1B3A
:104FC000DB0B0FB6F894DEBF0FBECDBF09942A8865
:104FD000398848885F846E847D848C849B84AA840D
:104FE000B984C884DF80EE80FD800C811B81AA819A
:104FF000B981CE0FD11D0FB6F894DEBF0FBECDBF65
:08500000ED010895F894FFCFC3
:105008000A53657474696E67205049442067726F4B
:1050180075703A200020746F2076616C75653A20AF
:105028000020776974682074696D653A2000206DE6
:10503800730A0053746F7070696E67206D6F746FB8
:1050480072206F75747075743A20005374617274AD
:10505800696E67206D6F746F72206F7574707574E8
:105068003A20006173796E005F706964005F73773E
:105078007000507573683A00000000000000964305
:105088000000000000002041000000000000C842AD
:105098002A2A537461727420696E697469616C6933
:1050A8007A6174696F6E005374617274696E6720F7
:1050B80052424533303032204669726D77617265ED
:1050C80020696E206465627567206D6F64650A00EB
:1050D80074F7260102036263732E696F2E2A3B3030
:1050E8002E333B3B006263732E696F2E7365746DBC
:1050F8006F64652E2A3B302E333B3B006263732E70
:105108007069642E2A3B302E333B3B007770692E42
:10511800333030322A3B302E333B3B00636F6D3ADD
:105128000000000000000090410000404000009096
:10513800410000C040000090410000104100009074
:105148004100004041000090410000704100009083
:1051580041205B005D000A00303132333435363788
:105168003839414243444546012053747265616DA4
:105178003A2073697A653D00095061636B65742054
:105188003D2009000956657273696F6E203D20093C
:1051980000094D4143203D20090900094D65746807
:1051A8006F64203D2009005374617475730047656E
:1051B8007400506F73742000437269746963616C82
:1051C80000556E6B6E6F776E00094173796E6320C0
:1051D8004944203D2009002853796E6368726F6E38
:1051E8006F75732900284173796E6368726F6E6FEB
:1051F8007573290009446174612053697A65203DFB
:10520800200900094352432056616C7565203D20F2
:1052180009000952504320636F6465203D2009004E
:105228000944617461203D20090900206E6F2064E3
:10523800617461004E756D206279746573206174C4
:105248002073746172743A200023234A756E6B6967
:105258006E67206261642066697273742062797473
:1052680065200043757272656E74206E756D2062DC
:10527800797465733A2000232323426164206669A8
:105288007273742062797465002323234261642059
:1052980063726320636865636B00204A756E6B20D8
:1052A800646174613A2000476F74206865616465C1
:1052B800720023234661696C656420746F20616CF9
:1052C8006C69676E20617061636B657400232A23C3
:1052D8002A5761726E696E672C207061636B657402
:1052E80020686173206E6F20525043002A2A466F4F
:1052F800756E64207061636B65742C2000204279A0
:105308007465732C2070756C6C696E67206F75748A
:10531800206F66206275666665720048656164651F
:10532800722072656164792C2062757420646174DE
:1053380061206973206E6F74207965742E204E6524
:1053480065643A200020686176653A2000476F74EA
:105358003A00526573706F6E73653A0023232342D7
:105368006164205061636B657421210000000000B6
:10537800000074F7260101016263732E636F726582
:105388002E2A3B302E333B3B0040234023464946E0
:105398004F204641494C454420544F20494E4954DA
:1053A80049414C495A45002C00496E697469616C41
:1053B800697A696E67204649464F2C2042756666B1
:1053C80065722053697A653A2000A9044023234571
:1053D80052524F52206669666F206973206F766556
:1053E80072666C6F776E212053697A652C2062751E
:1053F800666665723A2000CC04416464696E672071
:1054080061206E616D6573706163653A2000436861
:1054180065636B696E6720525043206C6973740032
:105428002C20466F756E64206D61746368696E67C1
:1054380020525043002C204E6F206D6174636865C4
:105448007320666F756E64004E6F20525043276359
:105458002072656765737465726564005573696E5B
:10546800672063616C6C6261636B005F706E6700DC
:10547800486176652000206E616D657370616365B3
:1054880073000A53656E64696E673A200046616965
:105498006C6564206765742063616C6C6261636B22
:1054A80000536574706F696E742069733A20002028
:1054B80063757272656E74207374617465206973A4
:1054C8003A2000206572726F722069733A20002CAE
:1054D80020636F6E74726F6C207365742069733A01
:1054E80020007363687600536572766F2053657485
:1054F800204F4B2C20746F2076616C3A20002323B8
:105508002320736572766F20736574206661696CF9
:1055180065640000000000000000000001020203B2
:105528000303030404040404040404050505050531
:10553800050505050505050505050506060606060E
:1055480006060606060606060606060606060606F3
:1055580006060606060606060606060707070707DE
:1055680007070707070707070707070707070707C3
:1055780007070707070707070707070707070707B3
:1055880007070707070707070707070707070707A3
:10559800070707070707070707070708080808088E
:1055A8000808080808080808080808080808080873
:1055B8000808080808080808080808080808080863
:1055C8000808080808080808080808080808080853
:1055D8000808080808080808080808080808080843
:1055E8000808080808080808080808080808080833
:1055F8000808080808080808080808080808080823
:105608000808080808080808080808080808080812
:0C5618000808080808080808080808002E
:00000001FF
