:100000000C94C0000C94DD000C94DD000C94DD0019
:100010000C94DD000C94DD000C94DD000C94DD00EC
:100020000C94DD000C94DD000C94DD000C94DD00DC
:100030000C94DD000C94DD000C94DD000C94EE15A6
:100040000C94DD000C94DD000C94DD000C94280968
:100050000C948C160C94DD000C94DD000C94DD00E7
:100060000C94DD000C94DD000C94DD000C94DD009C
:100070000C940C0D0C94DD000C94DD003606390652
:100080003C063F064206450648064B064E0651060C
:1000900054065B06610668066F0675067A068006DA
:1000A00085068A069D06A406AD063C07B806BD0671
:1000B000C306CA06D206D906E106EA06F406000718
:1000C0000E0716071D0725072C0735074C07530792
:1000D0005C07EB0767076C077207790781078807DA
:1000E00090079907A307AF07BD07C507CC07D4073B
:1000F000DB07E407C60DC90DCC0DCF0DD20DD50D14
:10010000D80DDB0DDE0DE10DE50DEA0DED0DF00D69
:10011000F30DF60DFC0DFF0D020E050E0B0E100E6D
:10012000160E1E0E320E3B0E450E500E5C0E670E66
:10013000730E800E8C0E950E9F0EAA0EB60EC10E7B
:10014000CD0EDA0EE60EEF0EF90E040F100F1B0F98
:10015000270F340FCA1CCD1CD01CD31CD61CD91C95
:10016000DC1CDF1CE21CE51CE81CEB1CEE1CF11C7B
:10017000F41CF71CFA1CFD1C001D031D091D061DA7
:1001800011241FBECFEFD0E1DEBFCDBF15E0A0E050
:10019000B1E0ECE1FDE402C005900D92AC31B10795
:1001A000D9F71AE0ACE1B5E001C01D92A433B10764
:1001B000E1F70E941B1D0C948C260C940000CF9339
:1001C000DF93EC018F850E94F3008850823010F09D
:1001D00088E906C07A896B89898998890E94340DDB
:1001E000DF91CF9108950E9446058F7708951F9360
:1001F000182F0E944605813860F4812F0E94460521
:100200008F77803131F0833121F0893011F080E037
:1002100001C081E01F910895EF92FF920F931F9309
:10022000182FE62E042FF22E0E946803812F602FD4
:100230000E943D07812F6F2D0E948E06812F6E2D0B
:100240000E94E9051F910F91FF90EF9008950F9381
:100250001F93182F062F0E94680380E091E00E94F0
:100260000014612F70E080E090E00E94031486E0AB
:1002700091E00E940214802F0E94AF1C002309F419
:1002800088C0802F90E08F7790708A309105F4F4C9
:100290008830910534F58330910509F46BC08430C2
:1002A000910544F48130910509F470C0029709F07A
:1002B0006DC065C08630910509F44FC08730910547
:1002C0000CF055C0049709F061C03DC08431910520
:1002D00024F40E970CF053C01AC046970CF056C089
:1002E00040C0E12FF0E0EC5CF54F808183FF53C00C
:1002F00080E168E041E021E00E940C0181E169E0D9
:1003000040E021E00E940C010E94750D42C0E12FE7
:10031000F0E0EC5CF54F808184FF3DC080E06AE056
:1003200040E021E00E940C0181E06BE040E021E030
:100330000E940C0182E06CE040E021E00E940C0190
:1003400083E06DE01EC0812F602F40E020E00E941E
:100350000C01812F0E94A50307C0812F0E94A908CC
:1003600003C0812F0E94FE048823B1F012C0812FA8
:100370000E94750C812F602F41E020E004C0812F86
:10038000602F40E021E00E940C0103C0812F0E94F9
:10039000680381E001C080E01F910F9108951F93D1
:1003A000CF93DF93EC0110E0812F6F850E9427012E
:1003B000882329F01F5F21961831B1F781E0DF9182
:1003C000CF911F910895FC019785608981858730C1
:1003D00018F0818981116068892F0E94270181119D
:1003E00081E008951F93CF93DF93C0E0D0E01C2FEE
:1003F0008C2F60E00E943D078C2F60E00E948E06EB
:10040000CE010E94CD05682F8C2F0E947D08CE0161
:100410000E94CD05682F8C2F20E030E040E050E0B6
:100420000E946E0B8C2F0E94460582508D3F20F05B
:100430008C2F62E00E94E905812F0E944605682FFB
:10044000812F0E9427012196C831D10581F6DF91C5
:10045000CF911F910895FC01608B0895FC01708B72
:10046000618B0895FC01708B618B528B438B0895D7
:10047000FC01728963898189908908950F931F9384
:10048000CF93DF93EC010F85802F0E94F300833020
:1004900051F0873041F0863031F0823021F08431E4
:1004A00011F08531F1F51889863061F1873020F43B
:1004B0008250823080F506C0873049F08451823006
:1004C00050F525C0802F612F0E948E0624C089859B
:1004D000863041F4802F612F20E030E040E050E092
:1004E0000E946E0B89858830B1F479896A8980E031
:1004F00090E00E9446239B01AC01802F612F0E9457
:100500006E0B09C0802F612F0E947D0804C0802FD0
:10051000612F0E948F04CE0160E840E00E94FE1629
:1005200010C0853081F08850823068F4098505500C
:1005300010E004C08F850E9458161F5F2196101787
:10054000C8F381E001C080E0DF91CF911F910F914E
:1005500008951F93182F0E94F3008730E1F0883030
:1005600050F4843031F1853018F4823068F00FC0D7
:10057000863051F416C0833151F0843118F4803143
:1005800019F405C0863188F021E030E016C0812FD3
:100590000E94260603C0812F0E94210A282F30E0E6
:1005A0000CC0812F0E949B08F9CF812F0E946F04FD
:1005B000F5CF812F0E9444049C01C9011F91089529
:1005C000DF92EF92FF920F931F93CF93DF938C01F3
:1005D000FC01E7848E2D0E94F300F82E8E2D0E94E0
:1005E000A902D82E8E2D0E94F700882311F00E94B8
:1005F000B30D80E2F80187838F2D8451823090F013
:10060000F3E0FF1679F086E0F81661F0E7E0FE16F9
:1006100049F0F2E0FF1631F083E1F81619F0E0E15D
:10062000FE1621F4F801D08A86E034C0F4E0FF160B
:1006300041F48E2D0E944404F801908B818B87E059
:1006400029C0F8EFFF0E81E08F1510F480E024C080
:1006500085E0F80181870E94FD0CEC010097D9F03C
:10066000C8010F96BE010E94020D2E96F801EC0FF4
:10067000FD1F2E9720E030E005C0808181832F5F31
:100680003F4F31972C173D07C0F381E1F801878771
:1006900081858C0F818781E0DF91CF911F910F9130
:1006A000FF90EF90DF9008950F931F93182F062F60
:1006B0000E94F3008650823010F080E006C0812F47
:1006C00090E0602F0E94C60581E01F910F91089570
:1006D0000F931F93082F0E94F300182F802F0E9462
:1006E000EC07802F0E940404802F0E94CE04812FEB
:1006F0008A50833080F480E062E00E94E90581E066
:1007000062E00E94E90582E062E00E94E90583E080
:1007100062E00E94E9051850123058F4802F0E94C0
:100720004C0D80E162E00E94E90581E162E00E94F7
:10073000E905802F60E00E943D071F910F91089509
:100740000E94261D0E94F2010895982FE82FF0E0E4
:10075000EC5CF54F808180FD02C080E008958091BF
:100760007C008F7380937C0080917C008F7D8093D0
:100770007C0080917A00806880937A0080917A0072
:10078000877F80937A0080917A00876080937A00D7
:1007900010927B009B30F1F09C3038F4993091F04E
:1007A0009A30A0F4983039F509C09D30D9F09D30C9
:1007B000A8F09E30D9F09F30F1F41FC080917E00E8
:1007C000816017C080917E00826013C080917E009E
:1007D00084600FC080917E0088600BC080917E0095
:1007E000806107C080917E00806203C080917E009E
:1007F000806480937E0081E0089580917E0080680F
:1008000080937E0081E00895982FE82FF0E0EC5C63
:10081000F54F808180FF37C09B30F1F09C3038F479
:10082000993091F09A30A0F4983069F509C09D3064
:10083000D9F09D30A8F09E30D9F09F3021F51EC030
:1008400080917E008E7F17C080917E008D7F13C0C7
:1008500080917E008B7F0FC080917E00877F0BC0D0
:1008600080917E008F7E07C080917E008F7D03C0C7
:1008700080917E008F7B80937E00089580917E0022
:100880008F7780937E000895982F9850983018F0B5
:1008900020E030E014C09F7180917C00807E892B25
:1008A00080937C0080917A00806480937A008091AC
:1008B0007A0086FDFCCF2091780030917900C90143
:1008C0000895883030F08093120984508093130982
:1008D0000895809313098C5F809312090895982FCF
:1008E000E82FF0E0EC5CF54F808187FD02C080E0EE
:1008F0000895983030F09093120994509093130912
:1009000005C0909313099C5F90931209E09113091D
:10091000F0E0EE0FFF1FEC5FF54F80810895CF935D
:10092000DF93982FE82FF0E0EC5CF54F808187FF94
:1009300032C0983030F0909312099450909313097C
:1009400005C0909313099C5F90931209C62FD0E0C5
:10095000C058D040E0911309F0E0EE0FFF1FEC5FAC
:10096000F54F60831C161D064CF48091120960E05F
:100970000E948E06CE01880F682F09C0809112094F
:1009800061E00E948E06CE018195682F660F8091EE
:1009900013090E947D08DF91CF910895982FE82FC9
:1009A000F0E0EC5CF54F808187FF27C0983030F095
:1009B0009093120994509093130905C090931309D2
:1009C0009C5F90931209809113090E94F300843177
:1009D000A1F4809112090E94F300853171F4809195
:1009E00013090E94EC078091130962E00E94E90557
:1009F0008091120962E00E94E9050895982FE82F7E
:100A0000F0E0EC5CF54F808187FD02C080E0089546
:100A1000983030F09093120994509093130905C0C8
:100A2000909313099C5F909312098091130964E1DC
:100A300041E020E00E940C018091120965E141E053
:100A400020E00E940C018091130960E80E948F044D
:100A500081E00895F999FECF1FBA12BC11BCF89A33
:100A600080B5853291F421E030E0F999FECF1FBACC
:100A700032BD21BDF89A80B5F901E558FD4F80835C
:100A80002F5F3F4F2730310581F70895F999FECF49
:100A90001FBA90E0079692BD81BDF89A80B508957F
:100AA000F999FECF1FBA87E390E092BD81BDF89A15
:100AB00030B5F999FECF1FBA88E390E092BD81BDB1
:100AC000F89A20B5F999FECF1FBA89E390E092BD5C
:100AD00081BDF89A70B5F999FECF1FBA8AE390E00C
:100AE00092BD81BDF89A60B5C9010895CB9624E006
:100AF0008030920710F080E00895F999FECF1FBA78
:100B000092BD81BDF89A80B50895F999FECF1FBABC
:100B100092BD81BDF89A80B508959C01F999FECFE8
:100B20001FBA32BD21BDF89A80B5861741F0F999F8
:100B3000FECF1FBA32BD21BD60BDFA9AF99A089561
:100B4000CB9624E08030920710F40E948D05089522
:100B5000FF920F931F93F62E072F182F692F87E30D
:100B600090E00E948D0588E390E0612F0E948D0542
:100B700089E390E0602F0E948D058AE390E06F2D5D
:100B80000E948D051F910F91FF9008956F3F09F40A
:100B90006EEF4F960E948D050895CF93DF939C01D1
:100BA000EC016F96F999FECF1FBAD2BDC1BDF89A7C
:100BB00080B58F3F21F4C90160E80E94C605F9990C
:100BC000FECF1FBAD2BDC1BDF89A80B5DF91CF91DB
:100BD0000895282F30E0295F3F4FF999FECF1FBAC3
:100BE00032BD21BDF89A80B5861719F0C9010E945F
:100BF0008D0508950F931F93CF93DF939C01F9996F
:100C0000FECF1FBA12BC11BCF89A80B5853211F420
:100C100080E017C08901C1E0D0E0F80161918F0147
:100C2000FE01E558FD4F6083CE010E948D0521969F
:100C3000C730D10591F780E090E065E20E948D0514
:100C400081E0DF91CF911F910F91089590E0FC0119
:100C50003497E431F10540F4E25CFF4FEE0FFF1FE3
:100C60000590F491E02D099480E008958091290089
:100C700024C0809129001AC0809123003DC080913A
:100C8000230035C08091200043C0809120003FC0E8
:100C90008091200037C0809120002EC080912000DC
:100CA00026C0809120001DC08091200082958695ED
:100CB000869583702DC080912000881F8827881F0B
:100CC00008958091C90083FD03C08091290014C05C
:100CD0008091C90083FD03C08091290013C08091D9
:100CE000260082958695877013C080912600829594
:100CF0008F700EC08091260086958695869508C0D7
:100D0000809126008695869503C080912600869561
:100D100081700895809126008170089590E0FC0113
:100D20003497E431F10508F0A7C0EE5AFF4FEE0FFB
:100D3000FF1F0590F491E02D09946795662767954C
:100D400080912B008F7766C061706295660F660F89
:100D5000607C80912B008F7B5DC06170660F660F99
:100D6000660F80912500877F862B8093250008954C
:100D70006170809122008E7F33C06170660F809118
:100D800022008D7F2DC06170660F660F809122005A
:100D90008B7F26C06170660F660F660F8091220000
:100DA000877F1EC061706295607F809122008F7E78
:100DB00017C061706295660F607E809122008F7D02
:100DC0000FC061706295660F660F607C8091220093
:100DD0008F7B06C0679566276795809122008F7785
:100DE000862B8093220008958091C90083FD44C022
:100DF0006170660F660F660F80912B00877F0AC0B7
:100E00008091C90083FD38C06170660F660F8091C4
:100E10002B008B7F862B80932B0008956170629549
:100E2000660F607E809128008F7D1BC06170629587
:100E3000607F809128008F7E14C06170660F660FFE
:100E4000660F80912800877F0CC06170660F660F67
:100E5000809128008B7F05C06170660F809128000B
:100E60008D7F862B809328000895617080912800E3
:100E70008E7F862B80932800089590E0FC013497A4
:100E8000E431F10508F0A7C0EA59FF4FEE0FFF1F4C
:100E90000590F491E02D09946795662767958091F8
:100EA0002A008F7766C061706295660F660F607C5E
:100EB00080912A008F7B5DC06170660F660F660FA0
:100EC00080912400877F862B809324000895617091
:100ED000809121008E7F33C06170660F8091210068
:100EE0008D7F2DC06170660F660F809121008B7F12
:100EF00026C06170660F660F660F80912100877FA4
:100F00001EC061706295607F809121008F7E17C046
:100F100061706295660F607E809121008F7D0FC0A9
:100F200061706295660F660F607C809121008F7BF7
:100F300006C0679566276795809121008F77862B7D
:100F40008093210008958091C90083FD44C06170A1
:100F5000660F660F660F80912A00877F0AC0809116
:100F6000C90083FD38C06170660F660F80912A004A
:100F70008B7F862B80932A00089561706295660F9F
:100F8000607E809127008F7D1BC061706295607FBD
:100F9000809127008F7E14C06170660F660F660F08
:100FA00080912700877F0CC06170660F660F80916B
:100FB00027008B7F05C06170660F809127008D7FB1
:100FC000862B8093270008956170809127008E7F83
:100FD000862B809327000895982FE82FF0E0EC5C93
:100FE000F54F808182FF21C09530D1F0963018F402
:100FF0009430D9F40FC0963019F09730B1F404C092
:10100000809144008F7303C0809144008F7C809353
:10101000440008958091B0008F738093B0000895CC
:101020008091B0008F7C8093B0000895853009F4E2
:101030004EC0863020F4843009F05EC032C0863065
:1010400021F0873009F058C015C0809124008860D5
:1010500080932400809144008360809344008091B9
:101060004500887F856080934500809144008F73A0
:10107000806814C080912400806180932400809156
:10108000440083608093440080914500887F8560A0
:1010900080934500809144008F7C8062809344005F
:1010A000089580912A00806880932A008091B00082
:1010B00083608093B0008091B10087608093B1001D
:1010C0008091B0008F7380688093B0000895809104
:1010D0002A00806480932A008091B000836080930E
:1010E000B0008091B10087608093B1008091B00022
:1010F0008F7C80628093B00008950F931F93182F08
:10110000062F0E941608153089F0163018F4143096
:1011100079F409C0163019F0173051F402C007BD38
:1011200007C008BD05C00093B30002C00093B4001F
:101130001F910F9108951F93182F0E94F30086307E
:1011400011F080E004C0812F90E00E94CD051F9136
:1011500008951F93182FE82FF0E0EC5CF54F808185
:1011600082FD02C080E012C0812F66E041E020E0F5
:101170000E940C01812F0E941608812F90E00E948E
:10118000CD05682F812F0E947D0881E01F91089571
:1011900080915D080895DF93CF930F92CDB7DEB7AE
:1011A0008FEF898380915D08882359F08FE498E060
:1011B000BE016F5F7F4F21E030E040E050E00E94D1
:1011C000C51989810F90CF91DF910895682F8FE421
:1011D00098E00E947A190895EF92FF920F931F935F
:1011E000CF93DF93EC018985E82EFF248BE090E01C
:1011F000E80EF91E80917C02898380917D028A83AA
:1012000080917E028B8380917F028C83809180020B
:101210008D83809181028E8300E010E0FE01E00F5B
:10122000F11F8FE498E060810E947A190F5F1F4FD1
:101230000E151F059CF3DF91CF911F910F91FF9029
:10124000EF900895682F82E397E00E947A1908953D
:101250001F920F920FB60F9211242F933F934F932B
:101260005F936F937F938F939F93AF93BF93EF930E
:10127000FF936EB582E397E00E947A190E94CB0833
:101280008EBDFF91EF91BF91AF919F918F917F9113
:101290006F915F914F913F912F910F900FBE0F90E3
:1012A0001F9018958DE195E062E377E00E94F117B9
:1012B000882369F081E080931C058DE195E00E9410
:1012C000851C8DE195E00E94EC0810921C050895A4
:1012D0001F9381E191E00E940014809124008F7E91
:1012E00080932400809124008F7D8093240080913E
:1012F00024008F7780932400809124008064809361
:101300002400809164008B7F8093640080914C0066
:10131000806880934C0080914C00806480934C00E6
:1013200080914C008F7D80934C0080914C008F7E8B
:1013300080934C0080914C00877F80934C0080917B
:101340004C008B7F80934C008FEF8EBD8FE498E034
:1013500064E477E02BE031E040E050E00E941919AE
:1013600082E397E067E276E02BE031E040E050E096
:101370000E94191981E060E040E00E94D30918E062
:10138000812F0E94F300823029F0812F0E94F30008
:10139000833021F4812F67E00E9427011F5F103105
:1013A00079F71F910895982F1092610810926208A2
:1013B000613049F4809124008460809324008091FE
:1013C0002500846017C0813069F480912400846016
:1013D00080932400809125008B7F8093250090933B
:1013E000610805C0809124008B7F80932400809148
:1013F00025008B7F80932500413049F480912400A3
:1014000082608093240080912500826017C0913013
:1014100069F48091240082608093240080912500EB
:101420008D7F809325009093620805C080912400F1
:101430008D7F80932400809125008D7F80932500EF
:101440000895E82FF0E0EE0FFF1FEC5FF54F80816D
:101450000895DF93CF9300D000D0CDB7DEB782E2FE
:1014600091E0A0E0B0E089839A83AB83BC8389815B
:101470009A81AB81BC810197A109B10989839A83C3
:10148000AB83BC830196A11DB11D0097A105B105D9
:1014900071F70F900F900F900F90CF91DF910895FB
:1014A0002F923F924F925F926F927F928F929F9274
:1014B000AF92EF92FF920F931F93DF93CF93CDB72D
:1014C000DEB729970FB6F894DEBF0FBECDBF6D8390
:1014D000A82EEAC08A2C99248401000F111F000F46
:1014E000111F080D191D000F111F0A5E164FD8019C
:1014F0006D917D918D919C9120E030E040E050E035
:101500000E9404227401EE0CFF1C340163E0660C9F
:10151000771C6A95E1F718160CF0AEC00E949C1477
:10152000E60CF71CE4E1F9E0EE0EFF1ED70116967B
:101530002D913D914D915C9119970E9400202B01B6
:101540003C01D8018D919D910D90BC91A02D898376
:101550009A83AB83BC83C301B20129813A814B8159
:101560005C810E94642288230CF05FC0C301B20139
:1015700020E030E040E050E00E94042218160CF019
:1015800054C0F70121803080622D70E080E090E04F
:101590000E9446236E837F8388879987632D70E03E
:1015A00062197109882777FD8095982F0E949422EF
:1015B0007B018C0169817A818B819C81A3019201DD
:1015C0000E94002029813A814B815C810E94582130
:1015D0009B01AC0160E070E080E89FE30E94002086
:1015E0009B01AC01C801B7010E945E209B01AC01C8
:1015F0006E817F81888599850E9431200E94AC1D73
:10160000231428F4361640F0621530F004C0631538
:1016100018F0261608F0362E880C991C24E03AE0C3
:10162000820E931ED4013C923EC0F401EE0FFF1FC8
:10163000EE0FFF1FE80DF91DEE0FFF1FEA5EF64FDC
:1016400080E090E0A0E0B0E080839183A283B38348
:10165000F401EE0FFF1F93E0880C991C9A95E1F7B7
:101660008E0E9F1E24E139E0820E931ED4018C91D0
:10167000EC5FF54F808317C06E0C7F1CE4E1F9E04E
:101680006E0E7F1ED3018C91E4E0FAE0EE0EFF1E99
:10169000D7018C9380E090E0A0E0B0E0F801808377
:1016A0009183A283B383A394FD81AF1608F412CF74
:1016B00029960FB6F894DEBF0FBECDBFCF91DF9154
:1016C0001F910F91FF90EF90AF909F908F907F9020
:1016D0006F905F904F903F902F900895DF92EF9220
:1016E000FF920F931F93CF93DF93D62E082F10E016
:1016F000E801CC0FDD1FCC0FDD1FC00FD11FCC0FB9
:10170000DD1FCA5ED64F288339834A835B83780105
:10171000EE0CFF1CA3E0000F111FAA95E1F70E0DC0
:101720001F1D0C5E164FF801608384E09AE0E80EFE
:10173000F91EF7018081F80181830E949C14F80151
:101740006683778380879187F7018081D81641F47B
:1017500080E090E0A0E0B0E088839983AA83BB8317
:10176000DF91CF911F910F91FF90EF90DF9008953F
:101770001F93182F0E94F300873021F4812F60E01F
:101780000E948E061F9108951F93182F0E94F30048
:10179000873079F41C3018F08091620802C0809183
:1017A0006108882331F0812F61E00E948E0681E07C
:1017B00001C080E01F910895CF92DF92EF92FF92D7
:1017C0000F931F93DF93CF9300D000D0CDB7DEB738
:1017D000182F813011F00E94EF13612F70E0CB01C0
:1017E00043E0880F991F4A95E1F7D82E6F5F7F4F2E
:1017F00033E0660F771F3A95E1F7C62E2091280057
:101800002068209328000E94500A86E69EE00197F7
:10181000F1F70D2D10E0EC2CFF2405C0802F0E9465
:10182000C40B0F5F1F4F0E151F05C0F382E291E03E
:10183000A0E0B0E089839A83AB83BC8389819A81DD
:10184000AB81BC810197A109B10989839A83AB83DC
:10185000BC830196A11DB11D0097A105B10571F7CB
:10186000EE24FF2424C0E12FF0E0EE0FFF1FEC5F19
:10187000F54F808190E0E816F90619F4812F0E9457
:10188000B80B1F5F1C1578F300000000000000007B
:1018900000000000000000000000000000000894AC
:1018A000E11CF11C80E0E81681E0F80611F01D2D26
:1018B000E9CF809128008F77809328001D2D04C0E8
:1018C000812F0E94B80B1F5F1C15D0F30E94EE13EE
:1018D0000F900F900F900F90CF91DF911F910F916C
:1018E000FF90EF90DF90CF9008951F93182F0E94E4
:1018F0006803812F61E00E943D071F9108959B01BD
:10190000AC0160E074E981E190E00E94332621504F
:1019100030403093CD002093CC000895603820E70C
:10192000720720E0820720E0920709F464C0613862
:1019300020E7720720E0820720E0920778F5603800
:1019400025E2720720E0820720E0920709F453C0E5
:10195000613825E2720720E0820720E0920780F4D8
:10196000603629E0720720E0820720E0920709F440
:1019700042C0605C72418040904009F03AC03BC078
:10198000603428E3720720E0820720E0920799F193
:1019900060507B448040904061F52DC060302CE267
:1019A000720721E0820720E0920729F161302CE2E2
:1019B000720721E0820720E0920770F4603026E988
:1019C000720720E0820720E09207A9F06050714E74
:1019D0008040904071F40FC0603022EC720721E02B
:1019E000820720E0920739F06050744883409040AD
:1019F00011F089E9089580E008958091850890911B
:101A000086080895FC019B0140E050E087E798E0DC
:101A1000BF010E94C51908951F920F920FB60F9231
:101A200011242F933F934F935F936F937F938F93E3
:101A30009F93AF93BF93EF93FF936091CE0087E79F
:101A400098E00E947A19FF91EF91BF91AF919F9119
:101A50008F917F916F915F914F913F912F910F9057
:101A60000FBE0F901F901895EF92FF920F931F9348
:101A70007B018C010E948E0C882341F0C801B701C4
:101A80000E947F0CC801B7010E94A80580E01F9149
:101A90000F91FF90EF9008951F93182FE82FF0E01B
:101AA000EC5CF54F808183FF1EC01092C90087E770
:101AB00098E063E678E024E130E040E050E00E9406
:101AC0001919812F0E94F3008850823060F480E160
:101AD00062E040E021E00E940C0181E162E040E030
:101AE00021E00E940C011F910895EF92FF920F9345
:101AF0001F930E9450057B018C010E948E0C88234D
:101B000059F460E07BE480E090E00E94A805E12CBD
:101B10008BE4F82E012D112DC801B7010E947F0C16
:101B200080E161E00E943D0781E160E00E943D07A5
:101B300081E161E00E948E0686E08093CA0088E918
:101B40008093C9001092C80087E798E063E678E0C8
:101B500024E130E040E050E00E9419191F910F91FC
:101B6000FF90EF90089581E0809389080895E82F11
:101B7000F0E0E831F10540F4E658FF4FEE0FFF1FAB
:101B80000590F491E02D099480E0089580918A08F1
:101B900053C080918A0817C080918A0818C080912C
:101BA0008A0835C080918A0838C080918A083AC076
:101BB00080918A083DC080918A081AC080918B0864
:101BC0003BC080918B08869537C080918B088695A5
:101BD000869532C080918B081AC080918B081DC0F9
:101BE00080918B081FC080918B0822C080918B0848
:101BF000881F8827881F089580918C081DC08091B8
:101C00008C08E1CF80918C08E2CF80918C0886957A
:101C10008695869511C080918C0882958F700CC036
:101C200080918C0882958695877006C080918C087B
:101C300082958695869583708170089580918C0831
:101C4000881F8827881F0895E82FF0E0E831F10504
:101C500008F016C1EE56FF4FEE0FFF1F0590F491EE
:101C6000E02D099490E0611191E080918A088E7FC7
:101C7000892B80938A0890E0611191E0990F8091FF
:101C80008A088D7F892B80938A0890E0611191E00A
:101C9000990F990F80918A088B7F892B80938A08EE
:101CA00090E0611191E0990F990F990F80918A0846
:101CB000877F892B80938A0890E0611191E092954B
:101CC000907F80918A088F7E892B80938A0890E08C
:101CD000611191E09295990F907E80918A088F7D95
:101CE000892B80938A0890E0611191E09295990F79
:101CF000990F907C80918A088F7B892B80938A082A
:101D000090E0611191E097959927979580918A08C5
:101D10008F77892B80938A0890E0611191E0809100
:101D20008B088E7F892B80938B0890E0611191E066
:101D3000990F80918B088D7F892B80938B0890E081
:101D4000611191E0990F990F80918B088B7F892BFE
:101D500080938B0890E0611191E0990F990F990F92
:101D600080918B08877F892B80938B0890E061118D
:101D700091E09295907F80918B088F7E892B809344
:101D80008B0890E0611191E09295990F907E80917F
:101D90008B088F7D892B80938B0890E0611191E0F7
:101DA0009295990F990F907C80918B088F7B892B4E
:101DB00080938B0890E0611191E097959927979512
:101DC00080918B088F77892B80938B0890E061112D
:101DD00091E080918C088E7F892B80938C0890E015
:101DE000611191E0990F80918C088D7F892B8093F0
:101DF0008C0890E0611191E0990F990F80918C0807
:101E00008B7F892B80938C0890E0611191E0990F72
:101E1000990F990F80918C08877F892B80938C086C
:101E200090E0611191E09295907F80918C088F7E77
:101E3000892B80938C0890E0611191E09295990F25
:101E4000907E80918C088F7D892B80938C0890E008
:101E5000611191E09295990F990F907C80918C0877
:101E60008F7B892B80938C0890E0611191E097958E
:101E70009927979580918C088F77892B80938C0870
:101E800008958B3009F448C08C3038F48930D1F093
:101E90008A3058F5883069F40FC08D3009F457C086
:101EA0008D3008F446C08E3009F466C08F3009F4D6
:101EB00073C040E050E081C040918D0880918E0851
:101EC000582F11C080918E088695869586959091A1
:101ED0008F08292F2295220F207E422F482B96957E
:101EE00096959695592F577068C080918F08829566
:101EF00086958695837020919008922F990F990F5F
:101F0000492F482B2295269526952370809191087C
:101F10008170880F880F2DC08091910886959091CF
:101F20009208292F279522272795422F482B9695EF
:101F3000D9CF8091920882958F7090919308292F24
:101F40002295207F422F482B92959F70CBCF809176
:101F50009308881F8827881F20919408922F990F33
:101F6000492F482B221F2227221F8091950883701A
:101F7000880F582F522B21C0809195088695869501
:101F800090919608292F2295220F220F207C422F14
:101F9000482B96959695A6CF809196088295869522
:101FA000877020919708922F990F990F990F492FB9
:101FB000482B522F529556955770CA0108958B3071
:101FC00009F45BC08C3040F48930E9F08A30A8F520
:101FD000883009F0C7C00DC08D3009F47BC08D304A
:101FE00008F461C08E3009F491C08F3009F0BAC096
:101FF000A6C060938D08972F977080918E08887F78
:10200000892B80938E08962F990F990F990F8091A5
:102010008E088770892B80938E08262F229526950F
:10202000277080918F08807C972F9770990F990F58
:10203000990F822B892B80938F08962F9295990F59
:10204000990F907C80918F088F73892B80938F08D4
:10205000972F9295990F990F907C862F869586954C
:10206000892B80939008972F9695969591708091E3
:1020700091088E7F892B80939108962F990F8091DC
:1020800091088170892B80939108262F221F222787
:10209000221F80919208807F972F9770990F822B33
:1020A000892B80939208962F9295907F8091920829
:1020B0008F70892B80939208262F22952F70809104
:1020C00093088078972F97709295907F822B892B19
:1020D00080939308962F97959927979580919308C9
:1020E0008F77892B80939308972F979599279795AA
:1020F000862F8695892B80939408972F96959370B9
:10210000809195088C7F892B80939508962F990F45
:10211000990F809195088370892B80939508262FBD
:10212000229526952695237080919608807E972F7C
:102130009770990F990F822B892B80939608962F71
:102140009295990F907E809196088F71892B80933C
:1021500096087295770F707E669566956695672BE3
:10216000609397080895EF92FF920F931F93CF9378
:10217000DF930E94520980918908813039F480915F
:1021800028008F7B809328001092890880E00E94AD
:102190006F14882319F080E00E94DC0B81E00E941C
:1021A0006F14882319F081E00E94DC0B82E00E940A
:1021B0006F14882319F082E00E94DC0B83E00E94F8
:1021C0006F1484E00E946F1485E00E946F148FE208
:1021D00091E00E940C1420E030E040E050E00E94CA
:1021E000042218160CF070C080918908882309F029
:1021F0006BC00E94FD0C892B39F08091280080640F
:10220000809328001092890810E0EE24E394812F37
:102210000E94F300843051F5812F0E94F70088233B
:1022200029F1812F0E944404082FF92EC82FD92F9D
:10223000812F0E94410F9C01CE01029682179307C5
:102240003CF0CE0102972817390784F4229774F0E6
:10225000E0928908812F602F7F2D0E94DF0F812F50
:102260000E94410FBC01812F0E94B1131F5F1831E2
:1022700071F610E0FF24F394812F0E94F300823066
:1022800031F4812F0E94F700882329F41AC080318D
:1022900011F08331B1F4812F0E942606082F812F7F
:1022A0000E94B70D081769F0F0928908812F602FFE
:1022B0000E94240E812F0E94B70D682F812F0E944B
:1022C000B2131F5F1831C1F6DF91CF911F910F91AB
:1022D000FF90EF90089587E391E00E9400148091B1
:1022E0002700806880932700809127008064809376
:1022F0002700809128008F77809328008091280004
:102300008F7B80932800809124008B7F8093240012
:10231000809125008B7F80932500809124008D7F04
:1023200080932400809125008D7F809325008091EB
:1023300024008B7F80932400809125008B7F8093E5
:102340002500809124008D7F8093240080912500BA
:102350008D7F809325000E94A0030E942A050E9481
:10236000680986E591E00E94001408950F931F9379
:10237000CF93DF93EC0186E0809398088B859C8552
:10238000AD85BE85833623E6920728E6A2072EE6B2
:10239000B20771F0833723E6920728E6A20726E703
:1023A000B20731F18F559D46A146B346F1F50EC0F7
:1023B000CE010E94DF00482F882321F4CE016091D6
:1023C00098080EC0CE01609198082DC0CE010F96DE
:1023D0000E94FA05882339F0CE016091980841E007
:1023E0000E94FE1622C0CE016091980841E01BC0F9
:1023F0000F851889CE010E943E02882381F0802F2C
:10240000612F0E945403882329F0CE01609198081F
:1024100042E0E6CFCE016091980842E004C0CE01D0
:102420006091980843E00E94221781E0DF91CF91EC
:102430001F910F910895CF92DF92EF92FF920F9329
:102440001F93CF93DF93EC0185E0809398088B85F1
:102450009C85AD85BE85833723E6920728E6A207D3
:102460002DE6B20739F18437E3E69E07E8E6AE07CA
:10247000EDE6BE0780F48536F5E69F07F0E7AF0787
:10248000F4E6BF0709F442C083579146A346BD4610
:1024900009F061C01AC08F35E0E79E07E7E7AE0795
:1024A000E2E7BE0769F183579346A846B64709F0AD
:1024B00052C015C0CE010E94E301882309F04BC031
:1024C000CE016091980840E044C0CE010E94CF0147
:1024D000882309F040C0CE016091980839C0CE0130
:1024E0000E943E02882339F0CE016091980842E0B4
:1024F0000E94FE1630C0CE016091980842E029C0CB
:102500008A896F8548890E94D30925C08F85482F05
:1025100050E08889282F30E024173507B8F07E0175
:10252000EA0100E010E06901CC1ADD0A08C0CE0122
:10253000F70160890E94A0050F5F1F4F2196089444
:10254000E11CF11C0C151D0590F305C0CE0165E0E2
:1025500041E00E94221781E0DF91CF911F910F91FE
:10256000FF90EF90DF90CF9008958F929F92AF925F
:10257000BF92CF92DF92EF92FF920F931F93DF9360
:10258000CF930F92CDB7DEB78C0184E0809398088B
:10259000F80183859485A585B6858136F1E69F0788
:1025A000F3E7AF07FEE6BF0709F4A5C0823621E6D0
:1025B000920723E7A2072EE6B207B8F48736E1E6D2
:1025C0009E07E3E6AE07EDE6BE0779F18736F3E650
:1025D0009F07F8E6AF07FDE6BF07F9F08556954679
:1025E000A047B44609F0AEC042C08F35E2E79E076F
:1025F000E5E6AE07E6E7BE0709F462C08736F3E614
:102600009F07F8E6AF07F6E7BF0721F1845691462A
:10261000A347BE4609F096C05CC0F80187850E94BA
:102620004605F801808B86E011C0780190E0892F83
:1026300099830E944605F701878799819F5F0894D7
:10264000E11CF11C983199F78CE1F801818780E257
:10265000878378C00E94B30DC8010E94E0028823DE
:1026600009F070C0C8016091980840E026C0F801E8
:10267000C7842C2D30E0D088AD2CBB2480E287832A
:10268000A216B306B8F07801490108C0C4010E943F
:102690007605F70186870894811C911C0894E11C3B
:1026A000F11C8A149B0490F3F4E0DF0EDC18F801AF
:1026B000D18648C0C80164E041E00E94221742C0B0
:1026C000F801178683E0808B86E0818B87E0818725
:1026D00039C00E94B30D6801FF248F2D0E94A9020A
:1026E000F6018787F3940894C11CD11CF8E1FF160A
:1026F000A1F78CE11AC00E94B30D680188E0F82EA2
:102700008F2D0E94A902F4E080309F0710F08FEF18
:1027100093E0F6019787808BF39482E090E0C80EF7
:10272000D91E90E1F91661F784E1F801818780E212
:1027300087838FE591E00E948117F8016387748792
:102740008587968781E00F90CF91DF911F910F9140
:10275000FF90EF90DF90CF90BF90AF909F908F90C1
:10276000089508950895EF92FF921F93CF93DF93FA
:10277000182F7B0183E00E94501680E00E945016C3
:1027800080E00E94501680E00E94501680E00E9477
:10279000501680E00E94501680E00E94501680E2A1
:1027A0000E94501683EE0E945016812F0E945016F0
:1027B000812F8A5F0E945016C0E0D0E0F701EC0F35
:1027C000FD1F80810E9450162196C430D105B1F7BB
:1027D000DF91CF911F91FF90EF9008950895089594
:1027E000E82FF0E0EF70F070EC59FE4F8081089513
:1027F00082958F70E4E6F1E0E80FF11D8081089585
:1028000008950895089508950895089508950895E0
:102810000895089581E008956F927F928F929F921C
:10282000AF92BF92CF92DF92EF92FF920F931F93DE
:10283000CF93DF93EC010E949C147B018C012881D3
:1028400039814A815B810E946422882324F4E882D2
:10285000F9820A831B83C801B701288139814A8123
:102860005B810E9400203B014C01AC80BD80CE808A
:10287000DF80A60195010E94042218162CF0E0E0EA
:1028800070E080E060E016C0C801B701A4019301C8
:102890000E940020A60195010E943120688379835F
:1028A0008A839B83C401B301A60195010E94002085
:1028B000E62F692F2E2F372F482F562FB901CA0127
:1028C000DF91CF911F910F91FF90EF90DF90CF900C
:1028D000BF90AF909F908F907F906F9008951F93BF
:1028E00090E023E0880F991F2A95E1F78C589E4FBE
:1028F0000E940C1410E020E030E040E050E00E9424
:10290000042218160CF411E0812F1F910895AC01D8
:1029100020E030E00CC0FA01E20FF31FE08180916B
:10292000C00085FFFCCFE093C6002F5F3F4F261706
:10293000370788F3CB0108952F923F924F925F9211
:102940006F927F928F929F92AF92BF92CF92DF92BF
:10295000EF92FF920F931F938091840090918500D6
:102960001C01442455246624772443018091D8080F
:102970009091D9083091DA084091DB085091DC0839
:102980006091DD087091DE08E091DF08A22CA80EAE
:1029900081E0A21408F080E0B32CB90E91E0B314EA
:1029A00008F090E0282F2B0D81E02B1508F080E037
:1029B000982BB22EC32E21E0341508F020E09C0D98
:1029C00081E09C1508F080E0282BC92ED42E91E0E0
:1029D000451508F090E02D0D81E02D1508F080E000
:1029E000982BD22EE52E21E0561508F020E09E0D02
:1029F00081E09E1508F080E0282BE92EF62E31E0CC
:102A0000671508F030E0922F9F0D81E09F1508F0C8
:102A100080E0382BF92E072F91E0781508F090E030
:102A2000232F200F81E0201708F080E0982B022F41
:102A30009E0F9501A601B701802F0E94D81D20E0AE
:102A400030E040E951E40E9458211F910F91FF901E
:102A5000EF90DF90CF90BF90AF909F908F907F903E
:102A60006F905F904F903F902F900895982F809196
:102A7000C900882369F41092CD0089E08093CC00CE
:102A800086E08093CA0088E08093C9001092C80055
:102A90008091C80085FFFCCF9093CE0008951092DE
:102AA000D8081092D9081092DA081092DB08109218
:102AB000DC081092DD081092DE081092DF08809189
:102AC00080008C7F8093800080918100887F85606A
:102AD0008093810080916F00816080936F000895E2
:102AE0009F92AF92BF92CF92DF92EF92FF920F939D
:102AF0001F9380918400909185009C0140E050E0FC
:102B000060E070E080E090E0E090D808E091D908C3
:102B1000B091DA081091DB080091DC08F090DD0834
:102B2000D090DE089090DF08E20EA1E0E21608F0F7
:102B3000A0E0E30FF1E0E31708F0F0E0AA2EAE0EFC
:102B4000A1E0AE1608F0A0E0FA2BE1E0B41708F01F
:102B5000E0E0BF2EBB0EF1E0BB1608F0F0E0EF2B7B
:102B6000F1E0151708F0F0E0CE2EC10EE1E0C1163D
:102B700008F0E0E0FE2BE1E0061708F0E0E01F2F90
:102B8000100FF1E0101708F0F0E0EF2BF1E0F7166E
:102B900008F0F0E0BE2FBF0DE1E0BF1508F0E0E067
:102BA000FE2BA1E0D81608F0A0E08F2F8D0DE1E0FC
:102BB0008D1508F0E0E0AE2B2E2D3A2D4B2D5C2D1F
:102BC000612F7B2F9A2F990D1F910F91FF90EF90FE
:102BD000DF90CF90BF90AF909F9008951F920F927B
:102BE0000FB60F9211242F933F934F935F936F93E0
:102BF0007F938F939F93AF93BF93EF93FF93A09196
:102C0000D808B091D9088091DA083091DB0840915A
:102C1000DC086091DD08E091DE08F091DF08282FE4
:102C20002F5F91E0281708F090E0822F792F730F23
:102C300091E0731708F090E0592F540F91E054176A
:102C400008F090E0392F360F91E0361708F090E049
:102C5000292F2E0F91E02E1708F090E09F0FA093E0
:102C6000D808B093D9088093DA087093DB085093A2
:102C7000DC083093DD082093DE089093DF08FF9195
:102C8000EF91BF91AF919F918F917F916F915F91E4
:102C90004F913F912F910F900FBE0F901F9018955D
:102CA000982F8091C00085FFFCCF9093C6000895B7
:102CB000982F8091C900882369F41092CD0089E093
:102CC0008093CC0086E08093CA0088E08093C9009E
:102CD0001092C8008091C80085FFFCCF9093CE0071
:102CE00008959093C5008093C40086E08093C2004D
:102CF00088E98093C1001092C00008951092CD0021
:102D000089E08093CC0086E08093CA0088E08093BD
:102D1000C9001092C80008951F920F920FB60F922B
:102D200011242F933F934F935F936F937F938F93D0
:102D30009F93AF93BF93EF93FF936091C60086EC90
:102D400098E00E947A19FF91EF91BF91AF919F9106
:102D50008F917F916F915F914F913F912F910F9044
:102D60000FBE0F901F901895F8941092C50089E03F
:102D70008093C40086E08093C20088E98093C100FC
:102D80001092C00086EC98E069E978E02DE230E02E
:102D900040E050E00E9419197894089566EC78E0BC
:102DA0000E94F1170895DC0120E030E090E007C0B8
:102DB000FD01E90FF11D8081280F311D9F5F9A30C1
:102DC000B8F39093E00890E01A968C91821709F47A
:102DD00091E0892F0895DC0120E030E090E007C009
:102DE000FD01E90FF11D8081280F311D9F5F9A3091
:102DF000B8F39093E0081A962C930895FC0117827B
:102E000089E78093E40884E68093E30882E780936F
:102E1000E2088FE58093E1088091E1089091E20853
:102E2000A091E308B091E40883879487A587B687CB
:102E300080858078808786E081876787408B86E001
:102E400090E00895FC01178282E78093E408809364
:102E5000E30885E68093E2088FE58093E10880919E
:102E6000E1089091E208A091E308B091E40883871B
:102E70009487A587B68780858078808786E081875C
:102E80006787408B86E090E00895FC016187862F7C
:102E900090E00895FC01218530E0255F3F4FC90196
:102EA0000895FC01818590E00895EF92FF920F93C1
:102EB0001F93E62EFF2400E010E08701FF24EE249C
:102EC00090E0A0E0B0E0B82FAA2799278827E80E65
:102ED000F91E0A1F1B1F50E060E070E0762F652F7F
:102EE000542F4427E40EF51E061F171FE20EF11C97
:102EF000011D111DB701C8011F910F91FF90EF90A7
:102F00000895FC0183818093E40882818093E30823
:102F100081818093E20860816093E108782F80913D
:102F2000E3089091E4080895AC011092E00820E0D5
:102F300012C0E22FF0E0322F3F5FDA01AE0FBF1F69
:102F4000E60FF71F9C918081981721F02093E008ED
:102F500080E00895232F263060F32093E00881E07D
:102F60000895FC01868597850895FC0180917C0277
:102F7000818380917D02828380917E028383809110
:102F80007F02848380918002858380918102868381
:102F900083E08083CF010E94EB1608950F931F9367
:102FA0008C010E94B517F801808580688087C80170
:102FB0000E944A17BC01C8010E9487141F910F91FB
:102FC00008950F931F93FC018B01CA0120E030E0AC
:102FD000BF01A90198010E94C519CB011F910F9152
:102FE0000895AF92BF92CF92DF92EF92FF920F932C
:102FF0001F93DF93CF930F92CDB7DEB78C016B0198
:10300000B82EA12E41E050E060E070E096010E94F1
:10301000311AF80180818330E9F429C0C601B70173
:1030200021E030E040E050E00E94C51984EA91E0E0
:103030000E940014698170E080E090E00E94031417
:103040008B2D9A2D41E050E060E070E096010E94E7
:10305000311A04C07E010894E11CF11CF60186853A
:103060009785892B21F0F80180818330B9F6F6012C
:10307000868597850F9708F47DC08B2D9A2D4BE0A0
:1030800050E060E070E096010E94311A7E010894E1
:10309000E11CF11CF8018081833039F4C8010E94E1
:1030A000D316882311F021E02DC0F80180818330F0
:1030B00019F08EEB91E007C0C8010E94D316882357
:1030C00021F480ED91E00E94001481EE91E00E94D5
:1030D0000214F801608170E080E090E00E94031427
:1030E000C601B70121E030E040E050E00E94C51980
:1030F0008B2D9A2D4BE050E060E070E096010E942D
:10310000311A20E0F601868597850F9728F48EEE18
:1031100091E00E9400142EC0222309F4BBCFF801D5
:103120008185082F10E00430110520F489E092E039
:103130000E940014055F1F4FF60186859785801752
:103140009107C0F088E292E00E940014780100E04C
:1031500010E0C801B7010E94031489E392E00E94C5
:103160000214C6016B2D7A2DA80197010E94C51982
:1031700081E001C080E00F90CF91DF911F910F910E
:10318000FF90EF90DF90CF90BF90AF9008950F9396
:103190001F93CF93DF93EC010E94CE168823F1F1A9
:1031A00087E592E00E940014CE010E9405148E0172
:1031B0000F5F1F4F8CE792E0B8010E949417813097
:1031C00039F086E792E0B8010E949417813011F53A
:1031D000CE010E94851C90E00BC0E92FF0E0DE01DB
:1031E000AE0FBF1FE458FD4F808111968C939F5FF7
:1031F000963098F39093E508CE010E94EB16CE012D
:103200000E94CE178CE592E00E940014CE010E942D
:10321000051404C086E692E00E94001480E0DF916D
:10322000CF911F910F9108950E944F150E94B416DF
:103230000895CF93DF93EC017D836C8328833983DA
:103240004A835B831E821F82188619861A861B8614
:103250001C861D8620E030E040E050E009C0EC8193
:10326000FD81E20FF31F10822F5F3F4F4F4F5F4FE3
:1032700088819981AA81BB81281739074A075B0792
:1032800070F32093E6083093E7084093E8085093E2
:10329000E908DF91CF910895CF93DF93EC0120E00F
:1032A00030E040E050E009C0EC81FD81E20FF31F07
:1032B00010822F5F3F4F4F4F5F4F88819981AA81C6
:1032C000BB81281739074A075B0770F32093E6088C
:1032D0003093E7084093E8085093E908DF91CF91D5
:1032E0000895FC01A481B58186819781A80FB91F3B
:1032F0008C910895EF92FF920F931F93CF93DF93DA
:10330000EC01EC81FD818A859B85E80FF91F6083C4
:103310008A859B85AC85BD850196A11DB11D8A87D7
:103320009B87AC87BD87288139814A815B81821761
:103330009307A407B50721F41A861B861C861D86F1
:103340008E859F85A889B9890196A11DB11D8E879B
:103350009F87A88BB98BEE24FF24870128813981B0
:103360004A815B81281739074A075B0728F081E00B
:10337000E82EF12C012D112DB701C801DF91CF915D
:103380001F910F91FF90EF900895AF92BF92CF924F
:10339000DF92EF92FF920F931F93CF93DF93EC0195
:1033A00059016A01EE24FF24870140C08E859F8564
:1033B000A889B9890097A105B10579F1EC81FD8152
:1033C0008E819F81E80FF91F8081FB0180838E81B0
:1033D0009F81A885B9850196A11DB11D8E839F830C
:1033E000A887B987288139814A815B818217930731
:1033F000A407B50721F41E821F8218861986F89447
:103400008E859F85A889B9890197A109B1098E8701
:103410009F87A88BB98B789402C0FB011082089417
:10342000E11CF11C011D111D6F5F7F4FEA14FB04AD
:103430000C051D0508F4BACFE092E608F092E70803
:103440000093E8081093E908B701C801DF91CF9114
:103450001F910F91FF90EF90DF90CF90BF90AF90B2
:103460000895AF92BF92CF92DF92EF92FF920F93A7
:103470001F93CF93DF935A016B01B901D9011696BF
:10348000ED90FD900D911C911997EC0120E030E03A
:1034900040E050E029C0FB0186859785A089B1896D
:1034A0000097A105B105D1F00480F581E02DEE0D66
:1034B000FF1D808188830894E11CF11C011D111DF2
:1034C000FB0180819181A281B381E816F9060A0788
:1034D0001B0729F4EE24FF24870101C018822F5F07
:1034E0003F4F4F4F5F4F21962A153B054C055D0519
:1034F00090F22093E6083093E7084093E808509351
:10350000E908B901CA01DF91CF911F910F91FF9096
:10351000EF90DF90CF90BF90AF900895CF93DF935F
:10352000EC017D836C83288339834A835B831E820D
:103530001F82188619861A861B861C861D8620E027
:1035400030E040E050E011C0C901880F991F880F9A
:10355000991FEC81FD81E80FF91F10821182128200
:1035600013822F5F3F4F4F4F5F4F88819981AA8110
:10357000BB81281739074A075B0730F32093E60819
:103580003093E7084093E8085093E908DF91CF9122
:103590000895CF93DF93EC0120E030E040E050E06D
:1035A00011C0C901880F991F880F991FEC81FD81F7
:1035B000E80FF91F10821182128213822F5F3F4F92
:1035C0004F4F5F4F88819981AA81BB8128173907A6
:1035D0004A075B0730F32093E6083093E7084093EF
:1035E000E8085093E908DF91CF910895EF92FF9298
:1035F0000F931F93CF93DF93EC018A859B85880FF0
:10360000991F880F991FEC81FD81E80FF91F4083F6
:103610005183628373838A859B85AC85BD850196C2
:10362000A11DB11D8A879B87AC87BD872881398101
:103630004A815B8182179307A407B50721F41A8694
:103640001B861C861D868E859F85A889B989019653
:10365000A11DB11D8E879F87A88BB98BEE24FF24F7
:103660008701288139814A815B81281739074A07F8
:103670005B0728F0E1E0EE2EF12C012D112DB701B2
:10368000C801DF91CF911F910F91FF90EF900895A6
:10369000AF92BF92CF92DF92EF92FF920F931F9360
:1036A000CF93DF93EC0159016A01EE24FF248701D7
:1036B0004DC08E859F85A889B9890097A105B10560
:1036C000C9F18E819F81880F991F880F991FEC8106
:1036D000FD81E80FF91F80819181A281B381FB01F7
:1036E00080839183A283B3838E819F81A885B985CE
:1036F0000196A11DB11D8E839F83A887B98728815C
:1037000039814A815B8182179307A407B50721F4A9
:103710001E821F8218861986F8948E859F85A88937
:10372000B9890197A109B1098E879F87A88BB98BA9
:10373000789405C0FB0110821182128213820894D2
:10374000E11CF11C011D111D6C5F7F4FEA14FB048D
:103750000C051D0508F4ADCFE092E608F092E708ED
:103760000093E8081093E908B701C801DF91CF91F1
:103770001F910F91FF90EF90DF90CF90BF90AF908F
:103780000895FF920F931F93F82E8B0182E892E029
:103790000E940014C8010E9402142091E602822FA8
:1037A00090E0FC01EE0FFF1FE80FF91FEA51FD4FFB
:1037B000F182138302832F5F2093E6021F910F9102
:1037C000FF900895CF93DF93EC011092EA080E94D6
:1037D000B611882331F4CE016091EA0843E00E94DB
:1037E0002217DF91CF91089560E040E00E942217F8
:1037F0000895CF93DF93EC011092EA080E941B1208
:10380000882331F4CE016091EA0842E00E94221739
:10381000DF91CF910895CF93DF93EC011092EA08E6
:103820008B859C85AD85BE858F3520E792072EE67A
:10383000A20727E6B20739F08F559E46AD46B3473B
:1038400009F055C00DC080E28F8387E992E00E94A5
:1038500081176B877C878D879E8784E0898752C01C
:1038600089858430B9F485E0898780E28F838091EF
:10387000E6028F878CE992E00E9400146091E602D4
:1038800070E080E090E00E94031482EA92E00E94DF
:10389000001438C0853039F59F858091E60298176D
:1038A000F0F484E0898780E28F83892F90E0FC0127
:1038B000EE0FFF1FE80FF91FEA51FD4F2181A28192
:1038C000B38190E009C0FE01E90FF11D8D9187875A
:1038D00089858F5F89879F5F9217A8F313C0CE01F8
:1038E00060E045E00DC0CE0160E044E009C0CE01DB
:1038F0000E94B512882331F4CE016091EA0841E0BC
:103900000E942217DF91CF910895CF93DF93EC01AE
:103910008F81803171F0813118F4882331F015C026
:10392000803259F0803389F40CC0CE0160E040E071
:103930000FC0CE010E940B1C0DC0CE010E94F91BCE
:1039400009C0CE010E94E21B05C0CE0160E04FE736
:103950000E94221780E88887DF91CF910895EF9227
:10396000FF920F931F93E82EFF2400E010E0D80190
:10397000C7018F779070A070B070FC0186319105FF
:1039800008F04CC0E655FF4FEE0FFF1F0590F49175
:10399000E02D09948FEF92E03EC089E093E03BC0B8
:1039A00088E193E038C08EE193E035C084E293E093
:1039B00032C081E393E02FC08FE393E02CC083E417
:1039C00093E029C089E493E026C081E593E023C019
:1039D00089E593E020C082E693E01DC08BE693E08A
:1039E0001AC083E793E017C08AE793E014C08CE81D
:1039F00093E011C08EE993E00EC081EB93E00BC021
:103A000084EC93E008C087ED93E005C08BEE93E073
:103A100002C08BEF93E00E94021408C08BE094E098
:103A20000E940214C801B7010E9403141F910F9154
:103A3000FF90EF9008950E9414190E946B110E944C
:103A4000B3108BEE98E00E94C718F9CF20E030E069
:103A5000F901E45EF54F8081827080832F5F3F4FD4
:103A600028313105A9F740911C0A60911D0AE091A7
:103A70001E0AF0911F0A8091200A9091210A20913C
:103A8000220A3091230A84688093200A94689093D4
:103A9000210A24682093220A34683093230A8091F3
:103AA000240A9091250A2091260A3091270A8168DC
:103AB0008093240A91689093250A21682093260A0E
:103AC00031683093270A8091280A81608093280A00
:103AD0008091290A81608093290A80912A0A816055
:103AE00080932A0A80912B0A816080932B0A70911F
:103AF0002C0A50912D0A406740931C0A606760931E
:103B00001D0AE067E0931E0AF067F0931F0A809198
:103B10002F0A9091310A2091330A30912E0A409158
:103B2000300A6091320A586650932D0A806680935D
:103B30002F0A90669093310A20662093330A7866A4
:103B400070932C0A306630932E0A40664093300AF8
:103B500060666093320A0895EF92FF920F931F936D
:103B60007B018C0120E030E040E05FE40E943422E1
:103B700088238CF0C801B70120E030E040E05FE42A
:103B80000E9400200E94F2229B01AC012050304094
:103B90004040504806C0C801B7010E94F2229B0174
:103BA000AC01B901CA011F910F91FF90EF900895E8
:103BB000A2E0B0E0EEEDFDE10C945526122FB32EFD
:103BC000A42E952E862E372E282E9A83C22ED32EE3
:103BD000E42EF52EA701960160E070E080E090E011
:103BE0002117A1F43B1591F44A1581F4591571F48C
:103BF000681561F4731551F4821541F4AA819A177E
:103C000029F4C701B6010E944623AAC0212F3B2DEB
:103C10004A2D592D682D732D822D9A8100E20E9424
:103C2000BF23C901DA018030E0E09E07E1E0AE0782
:103C3000E0E0BE0780F48F3F9105A105B10531F0AA
:103C400028F028E030E040E050E016C020E030E00E
:103C500040E050E011C08030F0E09F07F0E0AF0797
:103C6000F1E0BF0728F028E130E040E050E004C078
:103C700020E130E040E050E0022E04C0B695A79568
:103C8000979587950A94D2F7FC01E55EFB4F8081FA
:103C900029013A01480E511C611C711C4982212FD7
:103CA0003B2D4A2D592D682D732D822D9A81042D7F
:103CB0000E94BF23C901DA014C015D0180E290E05E
:103CC0008419950904C0CC0CDD1CEE1CFF1C8A95E0
:103CD000D2F7C114D104E104F10441F081E090E095
:103CE000A0E0B0E0882A992AAA2ABB2A90E24916C5
:103CF00051046104710459F40F2EF0E0EF2EF0E04E
:103D0000FF2EF0E80F2FFFE41F2FF02D21C0AFE1B1
:103D10004A1651046104710459F40F2EF0E0EF2E9D
:103D2000F0E0FF2EF0E00F2FFFE41F2FF02D10C06A
:103D300061E070E080E090E0098004C0660F771FCA
:103D4000881F991F0A94D2F70E9494227B018C014C
:103D5000C501B4010E944623A80197010E945E207C
:103D60002296E2E10C947126A0E0B0E0EAEBFEE1DD
:103D70000C945526DC012B01FA019C91923008F439
:103D800039C1EB018881823008F433C1943069F481
:103D9000843009F02FC111969C9111978981981751
:103DA00009F428C1A3E1B4E025C1843009F421C19C
:103DB0008230A9F4923009F01DC19A01AD0188E06A
:103DC000EA010990AE01E90109929E018150C1F713
:103DD000E201898111969C918923818308C19230E7
:103DE00009F407C112962D903C901397EB018A813C
:103DF0009B811496AD90BD90CD90DC901797EC8090
:103E0000FD800E811F819101281B390BB90137FFFD
:103E100004C066277727621B730B603271050CF0B4
:103E200061C0121613066CF537014801062E04C056
:103E300096948794779467940A94D2F721E030E0BF
:103E400040E050E004C0220F331F441F551F6A9505
:103E5000D2F721503040404050402E213F21402396
:103E60005123211531054105510521F021E030E0B4
:103E700040E050E079018A01E628F728082919294D
:103E80003CC0232BD1F1260E371E35014601062EEC
:103E900004C096948794779467940A94D2F721E0AB
:103EA00030E040E050E004C0220F331F441F551F94
:103EB0006A95D2F721503040404050402A213B21A2
:103EC0004C215D21211531054105510521F021E0ED
:103ED00030E040E050E059016A01A628B728C82820
:103EE000D9280BC0821593052CF01C01AA24BB24F1
:103EF000650103C0EE24FF24870111969C91D20135
:103F000011968C91981709F445C0992339F0A801AE
:103F100097012A193B094C095D0906C0A6019501C4
:103F20002E193F09400B510B57FD08C011823382F7
:103F3000228224833583468357831DC081E0818399
:103F40003382228288279927DC01821B930BA40BE2
:103F5000B50B84839583A683B7830DC0220F331FCF
:103F6000441F551F24833583468357838281938161
:103F70000197938382832481358146815781DA01B9
:103F8000C9010197A109B1098F5F9F4FAF4FBF438F
:103F900028F30BC0918333822282EA0CFB1C0C1D98
:103FA0001D1DE482F5820683178383E080832481CC
:103FB00035814681578157FF1AC0C901AA2797FD4D
:103FC000A095BA2F81709070A070B07056954795EB
:103FD00037952795822B932BA42BB52B8483958320
:103FE000A683B78382819381019693838283DF01C5
:103FF00001C0D201CD01CDB7DEB7E2E10C9471264C
:10400000A0E2B0E0E6E0F0E20C94612669837A83F6
:104010008B839C832D833E834F835887E9E0EE2E6C
:10402000F12CEC0EFD1ECE010196B7010E94622517
:104030008E010F5E1F4FCE010596B8010E946225CA
:104040008A8991E089278A8BC701B801AE01475E52
:104050005F4F0E94B41E0E948D24A096E6E00C944F
:104060007D26A0E2B0E0E7E3F0E20C9461266983EC
:104070007A838B839C832D833E834F835887F9E01B
:10408000EF2EF12CEC0EFD1ECE010196B7010E9421
:1040900062258E010F5E1F4FCE010596B8010E946A
:1040A0006225C701B801AE01475E5F4F0E94B41E92
:1040B0000E948D24A096E6E00C947D26A0E2B0E05C
:1040C000E4E6F0E20C94552669837A838B839C8323
:1040D0002D833E834F835887CE010196BE01675FD3
:1040E0007F4F0E946225CE010596BE016F5E7F4F15
:1040F0000E9462259985923088F089898230C8F0C3
:10410000943019F4823051F404C0843029F4923090
:1041100081F483E194E0C6C0923049F420E09A85AE
:104120008A89981321E02A87CE010996BBC0823084
:1041300049F420E09A858A89981321E02A8BCE01E0
:104140004196B0C02D843E844F8458886D887E8807
:104150008F88988CEE24FF248701AA24BB24650154
:1041600040E050E060E070E0E0E0F0E0C10181702C
:104170009070892BE9F0E60CF71C081D191D9A01B7
:10418000AB012A0D3B1D4C1D5D1D80E090E0A0E0C1
:10419000B0E0E614F7040805190520F481E090E08A
:1041A000A0E0B0E0BA01A901480F591F6A1F7B1FA8
:1041B000AA0CBB1CCC1CDD1C97FE08C081E090E063
:1041C000A0E0B0E0A82AB92ACA2ADB2A3196E03258
:1041D000F10549F0660C771C881C991C569447948D
:1041E00037942794C3CFFA85EA892B893C898B853C
:1041F0009C85280F391F2E5F3F4F17C0CA01817061
:104200009070892B61F016950795F794E79480E0FC
:1042100090E0A0E0B0E8E82AF92A0A2B1B2B76955B
:104220006795579547952F5F3F4F77FDE7CF0CC0B8
:10423000440F551F661F771F17FD4160EE0CFF1CD2
:10424000001F111F21503040403090E0590790E08E
:10425000690790E4790760F32B8F3C8FDB01CA017B
:104260008F779070A070B07080349105A105B10572
:1042700061F447FD0AC0E114F1040105110529F0BC
:10428000405C5F4F6F4F7F4F40781A8EFE1711F0E2
:1042900081E08A8F4D8F5E8F6F8F78A383E0898F47
:1042A000CE0149960E948D24A096E2E10C947126DD
:1042B000A8E1B0E0EEE5F1E20C945D2669837A8333
:1042C0008B839C832D833E834F835887B9E0EB2EED
:1042D000F12CEC0EFD1ECE010196B7010E94622565
:1042E0008E010F5E1F4FCE010596B8010E94622518
:1042F0002985223008F47EC03989323010F4B801A3
:104300007CC08A859A8989278A87243011F02230D7
:1043100031F4231709F06EC063E174E06EC03430ED
:1043200039F41D861E861F86188A1C861B8604C0CB
:10433000323021F484E08987B7015FC02B853C854A
:104340008B899C89281B390B3C872B87ED84FE8445
:104350000F851889AD88BE88CF88D88CEA14FB04F5
:104360000C051D0540F4EE0CFF1C001F111F215011
:1043700030403C872B8720E030E040E050E080E098
:1043800090E0A0E0B0E460E070E0EA14FB040C050B
:104390001D0540F0282B392B4A2B5B2BEA18FB0814
:1043A0000C091D09B695A79597958795EE0CFF1CEE
:1043B000001F111F6F5F7F4F6F31710531F7DA01F9
:1043C000C9018F779070A070B07080349105A105FD
:1043D000B10561F427FD0AC0E114F10401051105DE
:1043E00029F0205C3F4F4F4F5F4F20782D873E874D
:1043F0004F87588BBE01675F7F4FCB010E948D2492
:104400006896EAE00C947926A8E1B0E0EAE0F2E2EE
:104410000C94612669837A838B839C832D833E83EE
:104420004F83588789E0E82EF12CEC0EFD1ECE015B
:104430000196B7010E9462258E010F5E1F4FCE01CB
:104440000596B8010E9462258985823040F08989ED
:10445000823028F0C701B8010E94DA2501C08FEF31
:104460006896E6E00C947D26A8E1B0E0EAE3F2E28B
:104470000C94612669837A838B839C832D833E838E
:104480004F83588789E0E82EF12CEC0EFD1ECE01FB
:104490000196B7010E9462258E010F5E1F4FCE016B
:1044A0000596B8010E9462258985823040F089898D
:1044B000823028F0C701B8010E94DA2501C08FEFD1
:1044C0006896E6E00C947D26A8E1B0E0EAE6F2E228
:1044D0000C94612669837A838B839C832D833E832E
:1044E0004F83588789E0E82EF12CEC0EFD1ECE019B
:1044F0000196B7010E9462258E010F5E1F4FCE010B
:104500000596B8010E9462258985823040F089892C
:10451000823028F0C701B8010E94DA2501C081E08D
:104520006896E6E00C947D26A8E0B0E0EAE9F2E2C5
:104530000C945E269B01AC0183E08983DA01C901FA
:104540008827B7FD83959927AA27BB27B82E211561
:1045500031054105510519F482E089833AC0882369
:10456000A9F0203080E0380780E0480780E858074D
:1045700029F460E070E080E09FEC30C0EE24FF247E
:104580008701E21AF30A040B150B02C079018A01B4
:104590008EE1C82ED12CDC82CB82ED82FE820F838D
:1045A0001887C801B7010E943E2401971816190602
:1045B00084F4082E04C0EE0CFF1C001F111F0A9487
:1045C000D2F7ED82FE820F831887C81AD90ADC82DF
:1045D000CB82BA82CE0101960E948D242896E9E012
:1045E0000C947A26ACE0B0E0E8EFF2E20C94652699
:1045F00069837A838B839C83CE010196BE016B5FB6
:104600007F4F0E9462258D81823061F1823050F1AE
:10461000843021F48E81882351F12EC02F8138857A
:1046200037FD20C06E812F3131051CF06623F9F073
:1046300023C08EE190E0821B930B29853A854B8540
:104640005C8504C056954795379527958A95D2F78E
:104650006623B1F050954095309521953F4F4F4FCF
:104660005F4F0EC020E030E040E050E009C02FEF87
:104670003FEF4FEF5FE704C020E030E040E050E85C
:10468000B901CA012C96E2E00C948126A8E0B0E0C2
:10469000ECE4F3E20C945D267B018C01611571055D
:1046A0008105910519F482E0898360C083E08983E4
:1046B0008EE1C82ED12CDC82CB82ED82FE820F836C
:1046C0001887C801B7010E943E24FC013197F7FF0B
:1046D0003BC0222733272E1B3F0B57016801022EB8
:1046E00004C0D694C794B794A7940A94D2F740E034
:1046F00050E060E070E081E090E0A0E0B0E004C055
:10470000880F991FAA1FBB1F2A95D2F70197A109ED
:10471000B1098E219F21A023B1230097A105B105E6
:1047200021F041E050E060E070E04A295B296C290B
:104730007D294D835E836F8378878EE190E08E1BA9
:104740009F0B9C838B8312C0309781F00E2E04C088
:10475000EE0CFF1C001F111F0A94D2F7ED82FE829F
:104760000F831887CE1ADF0ADC82CB821A82CE0131
:1047700001960E948D242896EAE00C947926EF9207
:10478000FF920F93DF93CF93CDB7DEB760970FB64D
:10479000F894DEBF0FBECDBFA82F002309F461C07F
:1047A0007E010894E11CF11C88E0F70111928A95C2
:1047B000E9F729833A834B835C836D837E83AF83E0
:1047C000988780E2801BE82FFF27E7FDF0954D8159
:1047D0005E816F817885181684F01D861E861F867F
:1047E000188A882799278E1B9F0B04C0769567959A
:1047F000579547958A95D2F728C0202F332727FD54
:104800003095DB01CA01022E04C0B695A795979595
:1048100087950A94D2F78D879E87AF87B88B04C09F
:10482000440F551F661F771FEA95D2F789819A8139
:10483000AB81BC8104C0B695A795979587952A95BD
:10484000D2F7482B592B6A2B7B2B49875A876B87CA
:104850007C8729853A854B855C856D857E85AF850E
:1048600098898A2F60960FB6F894DEBF0FBECDBF31
:10487000CF91DF910F91FF90EF900895EF92FF920B
:104880000F931F937B018C0180E0E81680E0F8060F
:1048900081E0080780E0180788F48FEFE816F1043C
:1048A0000105110531F028F088E090E0A0E0B0E0CB
:1048B00017C080E090E0A0E0B0E012C080E0E81611
:1048C00080E0F80680E0080781E0180728F088E11A
:1048D00090E0A0E0B0E004C080E190E0A0E0B0E0B3
:1048E00020E230E040E050E0281B390B4A0B5B0B24
:1048F00004C016950795F794E7948A95D2F7F701C7
:10490000E55EFB4F8081281B310941095109C9012E
:104910001F910F91FF90EF900895DF92EF92FF9219
:104920000F931F93FC01E480F58006811781D180ED
:104930008081823048F480E090E0A0E1B0E0E82A95
:10494000F92A0A2B1B2BA5C0843009F49FC08230A2
:1049500021F4EE24FF24870105C0E114F1040105D0
:10496000110519F4E0E0F0E096C0628173819FEFD9
:10497000623879070CF05BC022E83FEF261B370B4B
:104980002A3131052CF020E030E040E050E02AC030
:10499000B801A701022E04C07695679557954795F3
:1049A0000A94D2F781E090E0A0E0B0E004C0880F64
:1049B000991FAA1FBB1F2A95D2F70197A109B10918
:1049C0008E219F21A023B1230097A105B10521F0DD
:1049D00081E090E0A0E0B0E09A01AB01282B392BF8
:1049E0004A2B5B2BDA01C9018F779070A070B070F1
:1049F00080349105A105B10539F427FF09C0205C79
:104A00003F4F4F4F5F4F04C0215C3F4F4F4F5F4FB1
:104A1000E0E0F0E02030A0E03A07A0E04A07A0E4A0
:104A20005A0710F0E1E0F0E079018A0127C0603810
:104A3000710564F5FB01E158FF4FD801C7018F777D
:104A40009070A070B07080349105A105B10539F463
:104A5000E7FE0DC080E490E0A0E0B0E004C08FE38A
:104A600090E0A0E0B0E0E80EF91E0A1F1B1F17FF40
:104A700005C016950795F794E794319687E016954B
:104A80000795F794E7948A95D1F705C0EE24FF24A3
:104A90008701EFEFF0E06E2F679566276795902FFF
:104AA0009F77D794DD24D7948E2F8695492F462B58
:104AB000582F5D29B701CA011F910F91FF90EF9008
:104AC000DF900895FC01DB01408151812281622F3A
:104AD0006F7770E0221F2227221F9381892F880F72
:104AE000822B282F30E0991F9927991F11969C93AC
:104AF000119721153105A9F541155105610571057C
:104B000011F482E037C082E89FEF13969C938E9356
:104B100012979A01AB0167E0220F331F441F551F04
:104B20006A95D1F783E08C930DC0220F331F441F89
:104B3000551F12968D919C911397019713969C93F4
:104B40008E931297203080E0380780E0480780E499
:104B5000580758F314962D933D934D935C931797F4
:104B600008952F3F310579F441155105610571050F
:104B700019F484E08C93089564FF03C081E08C9362
:104B800012C01C9210C02F57304013963C932E93A6
:104B9000129783E08C9387E0440F551F661F771FA1
:104BA0008A95D1F7706414964D935D936D937C93C1
:104BB000179708951F93DC01FB019C91923008F434
:104BC00047C08081823008F443C0943051F411967C
:104BD0001C91843099F58181682F70E0611B710907
:104BE0003FC0843021F0923031F48230B9F18181BC
:104BF000882389F12DC011961C9111978230F1F014
:104C000081811817D9F412962D913C9113978281C6
:104C100093818217930794F028173907BCF01496F4
:104C20008D919D910D90BC91A02D2481358146815F
:104C30005781281739074A075B0718F4112341F0F9
:104C40000AC082179307A407B50740F4112319F08F
:104C500061E070E005C06FEF7FEF02C060E070E0E0
:104C6000CB011F910895A1E21A2EAA1BBB1BFD01C7
:104C70000DC0AA1FBB1FEE1FFF1FA217B307E4073B
:104C8000F50720F0A21BB30BE40BF50B661F771F93
:104C9000881F991F1A9469F7609570958095909573
:104CA0009B01AC01BD01CF0108952F923F924F921D
:104CB0005F926F927F928F929F92AF92BF92CF92AC
:104CC000DF92EF92FF920F931F93CF93DF93CDB7B5
:104CD000DEB7CA1BDB0B0FB6F894DEBF0FBECDBF2D
:104CE00009942A88398848885F846E847D848C84FE
:104CF0009B84AA84B984C884DF80EE80FD800C8107
:104D00001B81AA81B981CE0FD11D0FB6F894DEBFE9
:0C4D10000FBECDBFED010895F894FFCF59
:104D1C0050696E203A00206973206D6F64653A20EB
:104D2C000009095374617274696E67207468652098
:104D3C0053504920736C617665206D6F646500007B
:104D4C000000000000A04023232353746172746997
:104D5C006E672041565220496E204465627567206B
:104D6C004D6F64650A0052656164792E2E2E005FCA
:104D7C007264790030313233343536373839414248
:104D8C0043444546000000000000904100004040B4
:104D9C00000090410000C040000090410000104114
:104DAC000000904100004041000090410000704123
:104DBC000000904123234A756E6B696E6720626117
:104DCC0064206669727374206279746520002323F1
:104DDC002342616420666972737420627974650081
:104DEC002323234261642063726320636865636BD1
:104DFC0000204A756E6B20646174613A2000232395
:104E0C004661696C656420746F20616C6C69676EB7
:104E1C0020617061636B657400232A232A576172C9
:104E2C006E696E672C207061636B657420686173AA
:104E3C00206E6F20525043002A2A466F756E6420F4
:104E4C007061636B65742C20002042797465732C3F
:104E5C002070756C6C696E67206F7574206F66209E
:104E6C0062756666657200476F743A0052657370BE
:104E7C006F6E73653A002323234261642050616393
:104E8C006B657421210000000000000074F72601FE
:104E9C000101416464696E672061206E616D657308
:104EAC00706163653A20005F706E670048617665DB
:104EBC002000206E616D65737061636573006263C1
:104ECC00732E636F72652E2A3B302E333B687474DD
:104EDC00703A2F2F6E6575726F6E726F626F746998
:104EEC0063732E636F6D2F77696B692F4263732D1C
:104EFC00636F72653B000138AE02000000000000D9
:104F0C000000000000000000000000000000004E47
:104F1C004F5F4348414E474500484947485F494D1C
:104F2C00504544414E43450049535F444900495361
:104F3C005F444F0049535F414E414C4F475F494ED0
:104F4C000049535F414E414C4F475F4F5554005001
:104F5C00574D00534552564F00554152545F5458CB
:104F6C0000554152545F5258005350495F4D4F53B6
:104F7C0049005350495F4D49534F005350495F53BB
:104F8C00434B005350495F535300434F554E5445C8
:104F9C00525F494E5055545F494E5400434F554E45
:104FAC005445525F494E5055545F44495200434F4B
:104FBC00554E5445525F494E5055545F484F4D45E0
:104FCC0000434F554E5445525F4F55545055545F06
:104FDC00494E5400434F554E5445525F4F55545013
:104FEC0055545F44495200434F554E5445525F4F00
:104FFC0055545055545F484F4D450049535F4443F9
:10500C005F4D4F544F525F4449520049535F4443E4
:10501C005F4D4F544F525F56454C00554E4B4E4FC3
:10502C00574E0000000000000000000001020203C7
:10503C000303030404040404040404050505050522
:10504C0005050505050505050505050606060606FF
:10505C0006060606060606060606060606060606E4
:10506C0006060606060606060606060707070707CF
:10507C0007070707070707070707070707070707B4
:10508C0007070707070707070707070707070707A4
:10509C000707070707070707070707070707070794
:1050AC00070707070707070707070708080808087F
:1050BC000808080808080808080808080808080864
:1050CC000808080808080808080808080808080854
:1050DC000808080808080808080808080808080844
:1050EC000808080808080808080808080808080834
:1050FC000808080808080808080808080808080824
:10510C000808080808080808080808080808080813
:10511C000808080808080808080808080808080803
:0C512C000808080808080808080808001F
:00000001FF
